:0400000013EF00F00A
:0600080047822FED0CF011
:100018004780E0CF2BF02BC0E0FF47901000D9EFCE
:020028000BF0DB
:101000000000000E3D6E000E3C6EC3EF08F0AC9881
:10101000AC94B896000E2C6E120E2D6E7A0E2E6EBB
:10102000000E2F6E3950D96EDA6A060ED926DECF41
:101030003AF0DDCF3BF03AC030F03BC031F0326ADD
:10104000336A34EC0AF0070E2BEF08F0D8902F32F9
:101050002E322D322C32E82E26EF08F0FF0E2C24F3
:101060003C6EFF0E2D203D6EE5EF08F0AC98AC8491
:10107000B896000E2C6E120E2D6E7A0E2E6E000E8D
:101080002F6E3950D96EDA6A060ED926DECF3AF0C5
:10109000DDCF3BF03AC030F03BC031F0326A336A0A
:1010A00034EC0AF0050E5AEF08F0D8902F322E32A9
:1010B0002D322C32E82E55EF08F0FF0E2C243C6E1A
:1010C000FF0E2D203D6EE5EF08F0AC98AC94B8868D
:1010D000000E2C6E120E2D6E7A0E2E6E000E2F6EDE
:1010E0003950D96EDA6A060ED926DECF3AF0DDCF56
:1010F0003BF03AC030F03BC031F0326A336A34EC36
:101100000AF0050E89EF08F0D8902F322E322D32DA
:101110002C32E82E84EF08F0FF0E2C243C6EFF0EDC
:101120002D203D6EE5EF08F0AC98AC84B886000E3B
:101130002C6E120E2D6E7A0E2E6E000E2F6E395002
:10114000D96EDA6A060ED926DECF3AF0DDCF3BF053
:101150003AC030F03BC031F0326A336A34EC0AF006
:10116000030EB8EF08F0D8902F322E322D322C32E9
:10117000E82EB3EF08F0FF0E2C243C6EFF0E2D205E
:101180003D6EE5EF08F03950D96EDA6A0A0ED926BD
:10119000DF503A6E3B6A3B50000AD8B4D2EF08F0F9
:1011A000E5EF08F03A50000AD8B407EF08F0010A5A
:1011B000D8B436EF08F0030AD8B465EF08F0010A96
:1011C000D8B494EF08F0E5EF08F03950D96EDA6A38
:1011D0000A0ED926DF503A6E3A463A46AC503A18D3
:1011E000FB0B3A18AC6E3CC0AFFF3D50B06E120026
:1011F000000E336E2C50D8B400EF09F002EF09F066
:1012000012EF09F02C50D96EDA6ADF30E832E8329A
:10121000070B2E6E070E2E6410EF09F012EF09F087
:1012200094EF09F0010E336EA9EF09F02C50D96E3E
:10123000DA6ADF30E832E832070B2E6E010E2F6ECD
:101240002E2A25EF09F0D8902F362E2E23EF09F005
:101250002C50D96EDA6ADF50070B020DF350150FD0
:10126000D96EDA6ADECF30F0DDCF31F030C0D9FF91
:1012700031C0DAFF2F50DF12A9EF09F02C50D96EE0
:10128000DA6ADF30E832E832070B2E6E010E2F6E7D
:101290002E2A4DEF09F0D8902F362E2E4BEF09F065
:1012A0002F50FF0A306E2C50D96EDA6ADF50070BD0
:1012B000020DF350150FD96EDA6ADECF31F0DDCFB3
:1012C00032F031C0D9FF32C0DAFF3050DF16A9EF5B
:1012D00009F02C50D96EDA6ADF30E832E832070BB9
:1012E0002E6E010E2F6E2E2A78EF09F0D8902F3631
:1012F0002E2E76EF09F02F50FF0A306E2C50D96E4B
:10130000DA6ADF50070B020DF350150FD96EDA6A57
:10131000DECF31F0DDCF32F031C0D9FF32C0DAFF9D
:101320003050DF1612EF09F02D502E6E2F6A2F501D
:10133000000AD8B49EEF09F069EF09F02E50000AB8
:10134000D8B43EEF09F0010AD8B416EF09F069EFFE
:1013500009F033501200000E326E2C50D8B4B3EFA7
:1013600009F0B5EF09F0C5EF09F02C50D96EDA6A33
:10137000DF30E832E832070B2D6E070E2D64C3EF25
:1013800009F0C5EF09F01CEF0AF0010E326E32EFE2
:101390000AF02C50D96EDA6ADF30E832E832070BF7
:1013A0002D6E010E2E6E2D2AD8EF09F0D8902E3614
:1013B0002D2ED6EF09F02C50D96EDA6ADF50070BCC
:1013C000020DF3500B0FD96EDA6ADECF2FF0DDCFAE
:1013D00030F02FC0D9FF30C0DAFF2E50DF1232EFCD
:1013E0000AF02C50D96EDA6ADF30E832E832070BA7
:1013F0002D6E010E2E6E2D2A00EF0AF0D8902E369B
:101400002D2EFEEF09F02E50FF0A2F6E2C50D96EB4
:10141000DA6ADF50070B020DF3500B0FD96EDA6A50
:10142000DECF30F0DDCF31F030C0D9FF31C0DAFF90
:101430002F50DF1632EF0AF02C50D96EDA6ADFBC7B
:1014400024EF0AF027EF0AF0010E28EF0AF0000E51
:10145000000AD8B4F1EF09F0010AD8B4C9EF09F0D5
:10146000C5EF09F032501200000E346E000E356EDA
:10147000000E366E000E376E3050311032103310C1
:10148000D8B445EF0AF047EF0AF07DEF0AF0010EFD
:10149000386E51EF0AF0D890303631363236333666
:1014A000382A33AE56EF0AF058EF0AF04BEF0AF045
:1014B000D890343635363636373630502C5C31508D
:1014C0002D5832502E5833502F58D8A06AEF0AF0BA
:1014D0006CEF0AF075EF0AF030502C5E31502D5A47
:1014E00032502E5A33502F5A3480D8903332323201
:1014F00031323032382E58EF0AF034C02CF035C07B
:101500002DF036C02EF037C02FF012003450D8A482
:101510008CEF0AF08EEF0AF090EF0AF0BAEF0AF0C3
:1015200045C036F03450D96EDA6ADF500F0B356E95
:1015300036503518F80B3518366E3450D96EDA6AD5
:10154000DF38070B356E354635463546365035188B
:10155000C70B3518366E369C3450D96EDA6ADFAE5A
:1015600002D0368E01D0369E360E2C6E010E2D6EB8
:10157000F8EC08F012003450D8A4C1EF0AF0C3EF21
:101580000AF0C5EF0AF0EFEF0AF044C036F034502D
:10159000D96EDA6ADF500F0B356E36503518F80BFE
:1015A0003518366E3450D96EDA6ADF38070B356E6F
:1015B00035463546354636503518C70B3518366E24
:1015C000369C3450D96EDA6ADFAE02D0368E01D046
:1015D000369E360E2C6E000E2D6EF8EC08F01200C2
:1015E000000E426E000E416E2A0E376E58EC0BF064
:1015F0001F0E3E6EB7EC0BF0406E410E2C6E24ECCD
:101600000BF04012310E41184210D8A40AEF0BF033
:101610000CEF0BF012EF0BF02A0E346E86EC0AF092
:10162000FDEF0AF0300E41184210D8A41AEF0BF06B
:101630001CEF0BF0FDEF0AF02A0E346EBBEC0AF043
:10164000FDEF0AF013EF00F0000E306E9EAA2BEFB4
:101650000BF02DEF0BF054EF0BF0ABAC32EF0BF0C7
:1016600034EF0BF048EF0BF0ABB039EF0BF03DEF80
:101670000BF02D6A2D2A3EEF0BF02D6A2D502F6EA8
:101680002E6A2C50D96EDA6A2EC0DEFF2FC0DDFF25
:10169000AE502D6E2E6A2C50D96EDA6A2DC0DEFF48
:1016A0002EC0DDFF56EF0BF0010E306E30501200F1
:1016B0003750D8A45EEF0BF060EF0BF062EF0BF049
:1016C0008AEF0BF046C039F03750D96EDA6ADF5036
:1016D0000F0B386E39503818F80B3818396E3750F0
:1016E000D96EDA6ADF38070B386E38463846384626
:1016F00039503818C70B3818396E399C3750D96EA5
:10170000DA6ADFAE02D0398E01D0399E390E346EDE
:101710008BEC0BF012003450D8B491EF0BF093EF38
:101720000BF0A3EF0BF03450D96EDA6ADF30E832F9
:10173000E832070B356E070E3564A1EF0BF0A3EF0F
:101740000BF0A5EF0BF0B6EF0BF034C02CF0ABECC8
:1017500009F0366E34C02CF03450D96EDA6A000EBF
:10176000DFBE010E2D6EF8EC08F036121200000EEE
:101770003F6E3E50D8A4BFEF0BF0C1EF0BF0C5EFAA
:101780000BF0010E3F6ED7EF0BF0AB9E3EC039F071
:1017900001EC08F0948C948E3EC02CF009EC0CF017
:1017A0003F123EC02CF01CEC0CF03F12AB8E3F50B1
:1017B0001200E80EF66E170EF76E000EF86E00EED1
:1017C00001F010EE2AF00900F5CFEEFFE550E150F0
:1017D000FAE1466A456A446A436A47904792000EB6
:1017E000F86E0001F0EF0AF0800F810F820F830F77
:1017F000840F920F930F940F950F960F890F8A0FF6
:101800008B0F8C0F8D0F000000000000802503035C
:101810000203AC8A2C50D96EDA6A090ED926DFA2EF
:1018200014EF0CF016EF0CF019EF0CF0AC8C1AEF73
:101830000CF0AC9C000E1200AB882C50D96EDA6A0A
:10184000080ED926DFA227EF0CF029EF0CF02CEFC1
:101850000CF0AB8C2DEF0CF0AB9C000E12000600D0
:04186000479211009A
:020000040030CA
:0E000000FF021F1EFF8185FF0FC00FE00F40A3
:00000001FF
