:0400000013EF00F00A
:06000800418207ED0CF03F
:100018004180E0CF25F025C0E0FF41901000DAEFE5
:020028000BF0DB
:101000000000000E2D6E2650D8B409EF08F00BEF4B
:1010100008F01BEF08F02650D96EDA6ADF30E832AC
:10102000E832070B286E070E286419EF08F01BEF53
:1010300008F09DEF08F0010E2D6EB2EF08F026507B
:10104000D96EDA6ADF30E832E832070B286E010E1B
:10105000296E282A2EEF08F0D8902936282E2CEF5A
:1010600008F02650D96EDA6ADF50070B020DF350F4
:10107000150FD96EDA6ADECF2AF0DDCF2BF02AC049
:10108000D9FF2BC0DAFF2950DF12B2EF08F026504B
:10109000D96EDA6ADF30E832E832070B286E010ECB
:1010A000296E282A56EF08F0D8902936282E54EFBA
:1010B00008F02950FF0A2A6E2650D96EDA6ADF50EE
:1010C000070B020DF350150FD96EDA6ADECF2BF045
:1010D000DDCF2CF02BC0D9FF2CC0DAFF2A50DF1651
:1010E000B2EF08F02650D96EDA6ADF30E832E83223
:1010F000070B286E010E296E282A81EF08F0D89080
:101100002936282E7FEF08F02950FF0A2A6E265034
:10111000D96EDA6ADF50070B020DF350150FD96E46
:10112000DA6ADECF2BF0DDCF2CF02BC0D9FF2CC03C
:10113000DAFF2A50DF161BEF08F02750286E296AC5
:101140002950000AD8B4A7EF08F072EF08F0285031
:10115000000AD8B447EF08F0010AD8B41FEF08F02E
:1011600072EF08F02D501200000E2C6E2650D8B4ED
:10117000BCEF08F0BEEF08F0CEEF08F02650D96EB5
:10118000DA6ADF30E832E832070B276E070E276491
:10119000CCEF08F0CEEF08F025EF09F0010E2C6E31
:1011A0003BEF09F02650D96EDA6ADF30E832E832D8
:1011B000070B276E010E286E272AE1EF08F0D89062
:1011C0002836272EDFEF08F02650D96EDA6ADF5076
:1011D000070B020DF3500B0FD96EDA6ADECF29F040
:1011E000DDCF2AF029C0D9FF2AC0DAFF2850DF124C
:1011F0003BEF09F02650D96EDA6ADF30E832E83288
:10120000070B276E010E286E272A09EF09F0D890E8
:101210002836272E07EF09F02850FF0A296E26509E
:10122000D96EDA6ADF50070B020DF3500B0FD96E3F
:10123000DA6ADECF2AF0DDCF2BF02AC0D9FF2BC02F
:10124000DAFF2950DF163BEF09F02650D96EDA6A33
:10125000DFBC2DEF09F030EF09F0010E31EF09F09E
:10126000000E000AD8B4FAEF08F0010AD8B4D2EFA1
:1012700008F0CEEF08F02C501200000E376E000E72
:10128000366E99EF09F0B886000E266E120E276EA4
:101290007A0E286E000E296E3350D96EDA6ADECFD0
:1012A00034F0DDCF35F034C02AF035C02BF02C6A95
:1012B0002D6AB8EC09F0030E63EF09F0D8902932DB
:1012C000283227322632E82E5EEF09F0FF0E262460
:1012D000366EFF0E2720376EB3EF09F0B896000E7A
:1012E000266E120E276E7A0E286E000E296E33506F
:1012F000D96EDA6ADECF34F0DDCF35F034C02AF0B3
:1013000035C02BF02C6A2D6AB8EC09F0030E8EEF75
:1013100009F0D8902932283227322632E82E89EF78
:1013200009F0FF0E2624366EFF0E2720376EB3EF2E
:1013300009F03350D96EDA6A040ED926DF50346EC4
:10134000356A3550000AD8B4A8EF09F0B3EF09F0B8
:101350003450000AD8B46EEF09F0010AD8B443EF54
:1013600009F0B3EF09F036C0AFFF3750B06E12008E
:10137000000E2E6E000E2F6E000E306E000E316EBF
:101380002A502B102C102D10D8B4C9EF09F0CBEF38
:1013900009F001EF0AF0010E326ED5EF09F0D89096
:1013A0002A362B362C362D36322A2DAEDAEF09F0BE
:1013B000DCEF09F0CFEF09F0D8902E362F3630361B
:1013C00031362A50265C2B5027582C5028582D5047
:1013D0002958D8A0EEEF09F0F0EF09F0F9EF09F085
:1013E0002A50265E2B50275A2C50285A2D50295A05
:1013F0002E80D8902D322C322B322A32322EDCEF36
:1014000009F02EC026F02FC027F030C028F031C0E0
:1014100029F012002650D96EDA6A030ED926DFA40D
:1014200014EF0AF016EF0AF025EF0AF02650D96EF5
:10143000DA6A020ED926DFA420EF0AF022EF0AF0C2
:1014400025EF0AF0AB8A26EF0AF0AB9A2650D96E48
:10145000DA6A020ED926DFA230EF0AF032EF0AF084
:1014600035EF0AF0AB8836EF0AF0AB982650D96E0C
:10147000DA6A020ED926DFA040EF0AF042EF0AF046
:1014800045EF0AF0AB8C46EF0AF0AB9C000E120061
:10149000000E2A6E2650D8B450EF0AF052EF0AF030
:1014A00082EF0AF09EAA57EF0AF059EF0AF080EF98
:1014B0000AF0ABAC5EEF0AF060EF0AF074EF0AF0EE
:1014C000ABB065EF0AF069EF0AF0276A272A6AEFE6
:1014D0000AF0276A2750296E286A2650D96EDA6AE0
:1014E00028C0DEFF29C0DDFFAE50276E286A2650D7
:1014F000D96EDA6A27C0DEFF28C0DDFF82EF0AF06E
:10150000010E2A6E2A501200000E306E2E50D8A402
:101510008CEF0AF08EEF0AF092EF0AF0010E306EB7
:10152000BCEF0AF03FC031F02E50D96EDA6ADF50BE
:101530000F0B2F6E31502F18F80B2F18316E2E50C5
:10154000D96EDA6ADF38070B2F6E2F462F462F46EB
:1015500031502F18C70B2F18316E319C2E50D96E79
:10156000DA6ADFAE02D0318E01D0319E310E266EA6
:10157000010E276E01EC08F030501200000E306EA4
:101580002E50D8A4C6EF0AF0C8EF0AF0CCEF0AF04C
:10159000010E306EF6EF0AF03EC031F02E50D96EDB
:1015A000DA6ADF500F0B2F6E31502F18F80B2F18FF
:1015B000316E2E50D96EDA6ADF38070B2F6E2F4648
:1015C0002F462F4631502F18C70B2F18316E319CE4
:1015D0002E50D96EDA6ADFAE02D0318E01D0319E44
:1015E000310E266E000E276E01EC08F0305012000E
:1015F000000E336E3150D8A400EF0BF002EF0BF069
:1016000006EF0BF0010E336E2EEF0BF040C034F0FE
:101610003150D96EDA6ADF500F0B326E3450321807
:10162000F80B3218346E3150D96EDA6ADF38070B96
:10163000326E32463246324634503218C70B3218B8
:10164000346E349C3150D96EDA6ADFAE02D0348EFB
:1016500001D0349E340E2E6E5FEC0BF0335012002E
:10166000000E3A6E000E3C6E000E3B6E1F0E386E82
:10167000B7EC0BF03A12240E316EF8EC0AF03A1285
:101680003B0E266E48EC0AF03A12310E3B183C1025
:10169000D8A44DEF0BF04FEF0BF056EF0BF0240EEC
:1016A0002E6E84EC0AF03A1240EF0BF0240E2E6EF0
:1016B000BEEC0AF03A1240EF0BF013EF00F02E50A0
:1016C000D8B465EF0BF067EF0BF077EF0BF02E500F
:1016D000D96EDA6ADF30E832E832070B2F6E070E78
:1016E0002F6475EF0BF077EF0BF079EF0BF08AEFCB
:1016F0000BF02EC026F0B4EC08F0306E2EC026F0B1
:101700002E50D96EDA6A000EDFBE010E276E01EC94
:1017100008F0301212002650D96EDA6A030ED9266C
:10172000DFA095EF0BF097EF0BF09AEF0BF0AC8A80
:101730009BEF0BF0AC9A2650D96EDA6A030ED926CD
:10174000DFA402D0AC8E01D0AC9E2650D96EDA6AEE
:10175000030ED926DFA2AFEF0BF0B1EF0BF0B4EF21
:101760000BF0AC8CB5EF0BF0AC9C000E1200000E31
:10177000396E3850D8A4BFEF0BF0C1EF0BF0C5EFB6
:101780000BF0010E396ED8EF0BF0AB9EAC8838C071
:1017900033F03DEC09F0948C948E38C026F08BEC3D
:1017A0000BF0391238C026F00AEC0AF03912AB8E71
:1017B00039501200EA0EF66E170EF76E000EF86E34
:1017C00000EE01F010EE24F00900F5CFEEFFE55039
:1017D000E150FAE1406A3F6A3E6A3D6A41904192B7
:1017E000000EF86E000130EF0BF0800F810F820FBA
:1017F000830F840F920F930F940F950F960F890FFD
:101800008A0F8B0F8C0F8D0F8025030201030600BA
:0418100041921100F0
:020000040030CA
:0E000000FF021F1EFF8185FF0FC00FE00F40A3
:00000001FF
