:04000000D8EF0AF03B
:10100000003738392F3435362A3132332D23303DED
:101010002B00000E506E4950D8B411EF08F013EFBA
:1010200008F023EF08F04950D96EDA6ADF30E83271
:10103000E832070B4B6E070E4B6421EF08F023EFED
:1010400008F0A5EF08F0010E506EBAEF08F0495015
:10105000D96EDA6ADF30E832E832070B4B6E010EE8
:101060004C6E4B2A36EF08F0D8904C364B2E34EFAE
:1010700008F04950D96EDA6ADF50070B020DF350C1
:101080000B0FD96EDA6ADECF4DF0DDCF4EF04DC0DA
:10109000D9FF4EC0DAFF4C50DF12BAEF08F04950CA
:1010A000D96EDA6ADF30E832E832070B4B6E010E98
:1010B0004C6E4B2A5EEF08F0D8904C364B2E5CEF0E
:1010C00008F04C50FF0A4D6E4950D96EDA6ADF5075
:1010D000070B020DF3500B0FD96EDA6ADECF4EF01C
:1010E000DDCF4FF04EC0D9FF4FC0DAFF4D50DF16B5
:1010F000BAEF08F04950D96EDA6ADF30E832E832E8
:10110000070B4B6E010E4C6E4B2A89EF08F0D890FE
:101110004C364B2E87EF08F04C50FF0A4D6E49506D
:10112000D96EDA6ADF50070B020DF3500B0FD96E40
:10113000DA6ADECF4EF0DDCF4FF04EC0D9FF4FC0A0
:10114000DAFF4D50DF1623EF08F04A504B6E4C6A21
:101150004C50000AD8B4AFEF08F07AEF08F04B50CB
:10116000000AD8B44FEF08F0010AD8B427EF08F00E
:101170007AEF08F050501200000E5A6E000E586EB2
:10118000000E576E000E566E5350D8B4CAEF08F0DA
:10119000CCEF08F0D4EF08F05450D8A4D2EF08F008
:1011A000D4EF08F0D8EF08F0010E5A6E47EF09F0BF
:1011B000000E576E5A04D8A4E0EF08F0E2EF08F0F2
:1011C000E4EF08F0F5EF08F053505724496E000E95
:1011D0004A6E09EC08F05A6E572A030E5764F3EF73
:1011E00008F0F5EF08F0DAEF08F05A04D8A4FBEFA6
:1011F00008F0FDEF08F0FFEF08F047EF09F053505B
:101200005824496E010E4A6E09EC08F05A6E000E21
:10121000596E5A04D8A40FEF09F011EF09F013EF3B
:1012200009F03EEF09F053505924040F496E560E51
:101230004A6ED2EC09F05A6E5604D8A422EF09F097
:1012400024EF09F035EF09F05850040DF350010F69
:101250005924556E55C0F6FF100EF76EF86A5450BB
:10126000D96EDA6A0800F5CFDFFF592A030E5964F8
:101270003CEF09F03EEF09F009EF09F0582A030EA0
:10128000586445EF09F047EF09F0D8EF08F05A50DD
:101290001200000E4F6E4950D8B451EF09F053EFD1
:1012A00009F063EF09F04950D96EDA6ADF30E832AD
:1012B000E832070B4A6E070E4A6461EF09F063EFEC
:1012C00009F0BAEF09F0010E4F6ED0EF09F0495066
:1012D000D96EDA6ADF30E832E832070B4A6E010E67
:1012E0004B6E4A2A76EF09F0D8904B364A2E74EFAF
:1012F00009F04950D96EDA6ADF50070B020DF3503E
:10130000010FD96EDA6ADECF4CF0DDCF4DF04CC064
:10131000D9FF4DC0DAFF4B50DF12D0EF09F0495032
:10132000D96EDA6ADF30E832E832070B4A6E010E16
:101330004B6E4A2A9EEF09F0D8904B364A2E9CEF0E
:1013400009F04B50FF0A4C6E4950D96EDA6ADF50F3
:10135000070B020DF350010FD96EDA6ADECF4DF0A4
:10136000DDCF4EF04DC0D9FF4EC0DAFF4C50DF1636
:10137000D0EF09F04950D96EDA6ADFBCC2EF09F04C
:10138000C5EF09F0010EC6EF09F0000E000AD8B44F
:101390008FEF09F0010AD8B467EF09F063EF09F0A5
:1013A0004F501200000E526E4950D8B4DAEF09F0D7
:1013B000DCEF09F0F4EF09F04A50D8B4E2EF09F09D
:1013C000E4EF09F0F4EF09F04950D96EDA6ADF3042
:1013D000E832E832070B4B6E070E4B64F2EF09F070
:1013E000F4EF09F0F8EF09F0010E526E36EF0AF053
:1013F0004A50D96EDA6A4950E16EE26AE730E83263
:10140000E832070B4B6E4950E16EE26AE750070B7A
:10141000020DF350600FE16EE26AE6CF4CF0E5CFCB
:101420004DF04CC0E1FF4DC0E2FFE7504E6E495019
:10143000E16EE26AE730E832E832070B4F6E010EE8
:10144000506E4F2A26EF0AF0D89050364F2E24EFD8
:101450000AF050504E14516E4B2A31EF0AF0D890DA
:1014600051324B2E2FEF0AF05150DF6E52501200C6
:10147000000E546E000E556E5350D8A442EF0AF081
:1014800044EF0AF048EF0AF0010E566E87EF0AF0BB
:1014900053505424506E2AEC0BF0566E5604D8A4C8
:1014A00054EF0AF056EF0AF058EF0AF061EF0AF035
:1014B000542A030E54645FEF0AF061EF0AF048EF1C
:1014C0000AF05650D8A467EF0AF069EF0AF087EFE8
:1014D0000AF0030E55646FEF0AF071EF0AF073EF34
:1014E0000AF087EF0AF053505524040F496E49EC77
:1014F00009F0566E5604D8A480EF0AF082EF0AF085
:1015000084EF0AF087EF0AF0552A69EF0AF0565087
:1015100012005150D8B48FEF0AF091EF0AF099EF12
:101520000AF0090E526497EF0AF099EF0AF09DEF66
:101530000AF0010E586ED6EF0AF0000E596E000E3A
:10154000576E51505724496E59C053F059C054F04A
:10155000010E556E542AAFEF0AF0D8905536542E2E
:10156000ADEF0AF055505214566E532ABAEF0AF0F6
:10157000D8905632532EB8EF0AF056504A6E09EC06
:1015800008F0586E5804D8A4C8EF0AF0CAEF0AF061
:10159000CCEF0AF0D6EF0AF0592A572A030E596405
:1015A000D4EF0AF0D6EF0AF0A1EF0AF0585012007B
:1015B000200EF66E170EF76E000EF86E00EE60F05D
:1015C00010EE12F00900F5CFEEFFE550E150FAE120
:1015D000DA0EF66E160EF76E000EF86E00EE01F0E3
:1015E00010EE30F00900F5CFEEFFE550E150FAE1E2
:1015F00000EE31F0180EEE6AE806FDE100014DEF55
:101600000BF05350D8A407EF0BF009EF0BF00DEFE0
:101610000BF0010E546E28EF0BF0000E556E535078
:101620005524506E2AEC0BF0546E5404D8A41BEFD2
:101630000BF01DEF0BF01FEF0BF028EF0BF0552A0E
:10164000030E556426EF0BF028EF0BF00FEF0BF0B5
:10165000545012005050D8B430EF0BF032EF0BF072
:1016600042EF0BF05050D96EDA6ADF30E832E832E0
:10167000070B516E070E516440EF0BF042EF0BF079
:1016800046EF0BF0010E526E4BEF0BF050C049F0DD
:1016900049EC09F0526E5250120085EC0BF05B6E73
:1016A0005B04D8A456EF0BF058EF0BF05AEF0BF099
:1016B0006BEF0BF06A0E536E480E546EBCEC08F0E4
:1016C0004850D00F3C6E180E516E3CC052F089EC61
:1016D0000AF05AEF0BF000EF00F0920F930F940F07
:1016E000950F960F890F8A0F8B0F8C0F8D0F2D3B47
:1016F00017030B131B00520000C30001121A020A49
:101700002B231B130B03120212026A0E536E38ECCA
:101710000AF0180E536E01EC0BF0576E5750120082
:10172000800F810F820F830F840F828A929A626AE0
:02173000727ACB
:00000001FF
