:0400000088EF0EF087
:10100000003738392F3435362A3132332D23303DED
:051010002B2569000022
:10101600000E116E000E106E0C50D96EDA6ADFCF1C
:10102600F6FF100EF76EF86A0800F550250AD8A4E8
:101036001FEF08F021EF08F0E9EF08F00C50D96E29
:10104600DA6ADF2A000E0001CC6F000ECB6FCBC030
:101056003FF0376838680C50D96EDA6ADF50126E86
:1010660012C0F6FF100EF76EF86A0800F550640A13
:10107600D8B440EF08F042EF08F051EF08F012C084
:10108600F6FF100EF76EF86A0800F550690AD8A444
:101096004FEF08F051EF08F0DFEF08F00D50D96E72
:1010A600DA6A020EDF26DF5CD96EDA6ADECF13F06B
:1010B600DECF14F00C50D96EDA6A1228DF6E200EDD
:1010C600176E14BE69EF08F06CEF08F0010E6DEFB5
:1010D60008F0000E0F6E17061750A10FD96EDA6AC8
:1010E60013C001F014C002F0000E046E0A0E036E67
:1010F600E2EC0BF001C007F002C008F0EAEC0FF0DA
:101106000750300FDF6E13C001F014C002F0000E5E
:10111600046E0A0E036E80EC0BF001C013F002C0E1
:1011260014F0104A112A13501410D8B49DEF08F089
:101136009FEF08F0A7EF08F01750D8A4A5EF08F026
:10114600A7EF08F06EEF08F01750D8B4ADEF08F02F
:10115600AFEF08F0D0EF08F00F50D8B4B5EF08F0B5
:10116600B7EF08F0D0EF08F017061750A10FD96EA9
:10117600DA6A2D0EDF6E104A112AD0EF08F01750EA
:10118600A10FD96EDA6ADF500E6E0E50016E026A3A
:101196000BC003F03EEC0DF0172A200E1718D8A44A
:1011A600D7EF08F0D9EF08F0C2EF08F010C00BF047
:1011B60011C00CF001EF09F00C50D96EDA6ADF2A83
:1011C600000E0C6E000E0B6E01EF09F00C50D96E7E
:1011D600DA6ADFCFF6FF100EF76EF86A0800F550F0
:1011E600016E026A0BC003F03EEC0DF00C50D96E96
:1011F600DA6ADF2A000E0C6E010E0B6E1200000E6C
:10120600086E0150D8B40AEF09F00CEF09F01CEF94
:1012160009F00150D96EDA6ADF30E832E832070B9E
:10122600036E070E03641AEF09F01CEF09F09EEF38
:1012360009F0010E086EB3EF09F00150D96EDA6AB3
:10124600DF30E832E832070B036E010E046E032A24
:101256002FEF09F0D8900436032E2DEF09F0015038
:10126600D96EDA6ADF50070B020DF350740FD96E90
:10127600DA6ADECF05F0DDCF06F005C0D9FF06C07D
:10128600DAFF0450DF12B3EF09F00150D96EDA6AC3
:10129600DF30E832E832070B036E010E046E032AD4
:1012A60057EF09F0D8900436032E55EF09F0045095
:1012B600FF0A056E0150D96EDA6ADF50070B020D80
:1012C600F350740FD96EDA6ADECF06F0DDCF07F081
:1012D60006C0D9FF07C0DAFF0550DF16B3EF09F0E5
:1012E6000150D96EDA6ADF30E832E832070B036E56
:1012F600010E046E032A82EF09F0D8900436032EFD
:1013060080EF09F00450FF0A056E0150D96EDA6AC3
:10131600DF50070B020DF350740FD96EDA6ADECF79
:1013260006F0DDCF07F006C0D9FF07C0DAFF05508B
:10133600DF161CEF09F00250036E046A0450000A1F
:10134600D8B4A8EF09F073EF09F00350000AD8B437
:1013560048EF09F0010AD8B420EF09F073EF09F05D
:1013660008501200000E146E1250D8A4BDEF09F0FA
:10137600BFEF09F0C3EF09F0010E156E59EF0AF041
:1013860012C008F064EC0FF0156E1550D8A4CEEF1D
:1013960009F0D0EF09F059EF0AF01228086E64EC54
:1013A6000FF0156E1550D8A4DBEF09F0DDEF09F04C
:1013B60059EF0AF0000E146E12501424020F086E34
:1013C60064EC0FF0156E1504D8A4ECEF09F0EEEFFF
:1013D60009F0F0EF09F0F9EF09F0142A030E14648E
:1013E600F7EF09F0F9EF09F0DFEF09F01550D8A48F
:1013F600FFEF09F001EF0AF059EF0AF0340E136E11
:10140600F20EE82EFED7132EFCD712C00FF0380EC0
:10141600106E93EC0DF00D0E136EFC0EE82EFED73B
:10142600132EFCD712C00FF0380E106E93EC0DF091
:10143600640EE82EFED712C00FF0380E106E93EC35
:101446000DF0156E1550D8A42BEF0AF02DEF0AF00B
:1014560059EF0AF012C00FF0010E106E93EC0DF06A
:10146600151212C00FF0020E106E93EC0DF015124D
:1014760012C00FF0060E106E93EC0DF0151212C08E
:101486000FF00C0E106E93EC0DF0151212C00FF04B
:10149600280E106E93EC0DF0151212C00FF0800E90
:1014A600106E93EC0DF0151259EF0AF0155012005C
:1014B600000E136E1150D8A463EF0AF065EF0AF020
:1014C60069EF0AF0010E146EF5EF0AF011C008F08C
:1014D60064EC0FF0146E1450D8A474EF0AF076EF93
:1014E6000AF0F5EF0AF01128086E64EC0FF0146E9E
:1014F6001450D8A481EF0AF083EF0AF09FEF0AF0A8
:10150600000E136E11501324020F086E64EC0FF0D8
:10151600146E1404D8A492EF0AF094EF0AF096EF32
:101526000AF09FEF0AF0132A070E13649DEF0AF0E4
:101536009FEF0AF085EF0AF0340E126EF20EE82ED7
:10154600FED7122EFCD711C00BF0380E0C6E91ECA4
:101556000CF00D0E126EFC0EE82EFED7122EFCD7E6
:1015660011C00BF0380E0C6E91EC0CF0640EE82EE8
:10157600FED711C00BF0380E0C6E91EC0CF0146E09
:101586001450D8A4C9EF0AF0CBEF0AF0F5EF0AF031
:1015960011C00BF0010E0C6E91EC0CF0141211C080
:1015A6000BF0020E0C6E91EC0CF0141211C00BF045
:1015B600060E0C6E91EC0CF0141211C00BF00C0E12
:1015C6000C6E91EC0CF0141211C00BF0380E0C6E70
:1015D60091EC0CF0141211C00BF0800E0C6E91EC15
:1015E6000CF0141214501200000E076E0150D8B4FD
:1015F600FFEF0AF001EF0BF011EF0BF00150D96E7F
:10160600DA6ADF30E832E832070B026E070E026450
:101616000FEF0BF011EF0BF068EF0BF0010E076EFA
:101626007EEF0BF00150D96EDA6ADF30E832E8322D
:10163600070B026E010E036E022A24EF0BF0D89000
:101646000336022E22EF0BF00150D96EDA6ADF5014
:10165600070B020DF3506A0FD96EDA6ADECF04F07B
:10166600DDCF05F004C0D9FF05C0DAFF0350DF1255
:101676007EEF0BF00150D96EDA6ADF30E832E832DD
:10168600070B026E010E036E022A4CEF0BF0D89088
:101696000336022E4AEF0BF00350FF0A046E015088
:1016A600D96EDA6ADF50070B020DF3506A0FD96E56
:1016B600DA6ADECF05F0DDCF06F005C0D9FF06C039
:1016C600DAFF0450DF167EEF0BF00150D96EDA6AAE
:1016D600DFBC70EF0BF073EF0BF0010E74EF0BF045
:1016E600000E000AD8B43DEF0BF0010AD8B415EF8E
:1016F6000BF011EF0BF007501200000E066E04BE41
:1017060089EF0BF087EF0BF08FEF0BF0036C041EE5
:10171600D8B0042A010E066E02BE96EF0BF094EFC7
:101726000BF09CEF0BF0016C021ED8B0022A010EE2
:10173600061A000E086E000E076E03500410D8B489
:10174600A7EF0BF0A9EF0BF0D1EF0BF0010E056E32
:10175600B1EF0BF0D89003360436052A04AEB6EF87
:101766000BF0B8EF0BF0ADEF0BF0D890073608365C
:101776000350015C04500258D8A0C4EF0BF0C6EF2A
:101786000BF0CBEF0BF00350015E0450025A0780BA
:10179600D89004320332052EB8EF0BF00650D8B4B9
:1017A600D7EF0BF0D9EF0BF0DDEF0BF0076C081E4F
:1017B600D8B0082A07C001F008C002F01200000ED7
:1017C600066E02BEEBEF0BF0E9EF0BF0F1EF0BF05C
:1017D600016C021ED8B0022A010E066E04BEF8EF96
:1017E6000BF0F6EF0BF0FCEF0BF0036C041ED8B019
:1017F600042A03500410D8B403EF0CF005EF0CF0E4
:1018060029EF0CF0010E056E0DEF0CF0D8900336A3
:101816000436052A04AE12EF0CF014EF0CF009EFB3
:101826000CF00350015C04500258D8A01DEF0CF0D8
:101836001FEF0CF023EF0CF00350015E0450025A28
:10184600D89004320332052E14EF0CF00650D8B4AB
:101856002FEF0CF031EF0CF035EF0CF0016C021E9F
:10186600D8B0022A01C001F002C002F01200000E38
:101876000F6E0B50D8A442EF0CF044EF0CF048EF7B
:101886000CF0010E106E8FEF0CF00BC001F0010E84
:10189600026E02EC09F0106E1050D8A455EF0CF051
:1018A60057EF0CF08FEF0CF0000E0F6E0B500F245D
:1018B600020F016E0FC00DF00CC00EF00D2A66EF80
:1018C6000CF0D8900E320D2E64EF0CF00E50010B7A
:1018D600026E02EC09F0106E1004D8A475EF0CF03D
:1018E60077EF0CF079EF0CF082EF0CF00F2A070E71
:1018F6000F6480EF0CF082EF0CF059EF0CF01050F3
:10190600D8A488EF0CF08AEF0CF08FEF0CF00BC028
:1019160009F0CAEC0FF0106E10501200000E0F6E98
:101926000B50D8A499EF0CF09BEF0CF09FEF0CF046
:10193600010E106EE6EF0CF00BC001F0000E026E09
:1019460002EC09F0106E1050D8A4ACEF0CF0AEEF1C
:101956000CF0E6EF0CF0000E0F6E0B500F24020F8A
:10196600016E0FC00DF00CC00EF00D2ABDEF0CF08D
:10197600D8900E320D2EBBEF0CF00E50010B026EFE
:1019860002EC09F0106E1004D8A4CCEF0CF0CEEFE8
:101996000CF0D0EF0CF0D9EF0CF00F2A070E0F6405
:1019A600D7EF0CF0D9EF0CF0B0EF0CF01050D8A434
:1019B600DFEF0CF0E1EF0CF0E6EF0CF00BC009F0F6
:1019C600CAEC0FF0106E105012001150D8A4EEEFB2
:1019D6000CF0F0EF0CF0F4EF0CF0010E146E3CEF8F
:1019E6000DF013061328D8A4FBEF0CF0FDEF0CF056
:1019F60029EF0DF0000E136E29EF0DF011C00BF05C
:101A06001350800F0C6E91EC0CF0146E3CEF0DF041
:101A160011C00BF01350C00F0C6E91EC0CF0146E4D
:101A26003CEF0DF011C00BF01350940F0C6E91ECBF
:101A36000CF0146E3CEF0DF011C00BF01350D40FE8
:101A46000C6E91EC0CF0146E3CEF0DF01250010A86
:101A5600D8B401EF0DF0030AD8B40BEF0DF0010A6C
:101A6600D8B415EF0DF0070AD8B41FEF0DF0F0EF5C
:101A76000CF0145012000350D8B444EF0DF046EFAA
:101A86000DF04EEF0DF00350D8A44CEF0DF04EEFD5
:101A96000DF053EF0DF001503EEC10F092EF0DF00B
:101AA6000350D96EDA6A0A0ED926DE50DE10D8B493
:101AB6005FEF0DF061EF0DF07AEF0DF00350D96E88
:101AC600DA6A0A0ED9260350E16EE26A030EE126AF
:101AD600DE50E65CE650800A086EDE50800A085842
:101AE600D8B078EF0DF07AEF0DF092EF0DF00350CD
:101AF600D96EDA6A030ED926DF50046E0350D96E0A
:101B0600DA6ADF500424D96EDA6A01C0DFFF0350B7
:101B1600D96EDA6A030ED926DE2A000EDD221200FD
:101B26000F50D8A499EF0DF09BEF0DF09FEF0DF03D
:101B3600010E116EE1EF0DF00FC001F0000E026E06
:101B460002EC09F0116E1150D8A4ACEF0DF0AEEF17
:101B56000DF0E1EF0DF00FC009F010380F0B0A6E13
:101B6600E3EC0DF0116E1150D8A4BCEF0DF0BEEFF2
:101B76000DF0C3EF0DF00FC009F03CEC0FF0116E45
:101B86001150D8A4C9EF0DF0CBEF0DF0E1EF0DF039
:101B96000FC009F010C00AF0E3EC0DF0116E115001
:101BA600D8A4D8EF0DF0DAEF0DF0E1EF0DF00FC08D
:101BB60009F03CEC0FF0116EE1EF0DF01150120040
:101BC600000E0E6E0950D8A4EBEF0DF0EDEF0DF000
:101BD600F1EF0DF0010E0D6E1CEF0EF0000E0E6E05
:101BE60009500E24020F016E0EC00BF00AC00CF055
:101BF6000B2A00EF0EF0D8900C320B2EFEEF0DF0F4
:101C06000C50010B026E02EC09F00D6E0D04D8A407
:101C16000FEF0EF011EF0EF013EF0EF01CEF0EF0BB
:101C26000E2A030E0E641AEF0EF01CEF0EF0F3EF01
:101C36000DF00D50120039EC10F0346E3404D8A4B7
:101C460027EF0EF029EF0EF02BEF0EF056EF0EF009
:101C56007E0E0B6E010E0C6E91EC0CF0410E336E87
:101C6600EE0EE82EFED7332EFCD700F000F0000E65
:101C7600306E000E2F6ECD0E316EB7EC0EF07E0E6E
:101C8600156E010E166E010E176ECD0E186EE6EC71
:101C96000EF0820E336EDE0EE82EFED7332EFCD704
:101CA600412A2BEF0EF000EF00F0000E136E1150DC
:101CB600D8A460EF0EF062EF0EF07BEF0EF0010E8F
:101CC600136E86EF0EF011C00BF01250D96EDA6A61
:101CD600DF500C6E3AEC0CF0136E122A1304D8A4E3
:101CE60077EF0EF079EF0EF07BEF0EF086EF0EF049
:101CF6001250D96EDA6ADF50D8A484EF0EF086EF60
:101D06000EF066EF0EF013501200520EF66E1F0E16
:101D1600F76E000EF86E00EE60F010EE41F009006E
:101D2600F5CFEEFFE550E150FAE1600EF66E200EBB
:101D3600F76E000EF86E00EE4FF010EE11F009008F
:101D4600F5CFEEFFE550E150FAE100EEA1F0320EDC
:101D5600EE6AE806FDE100EE35F01A0EEE6AE806D8
:101D6600FDE100011EEF0EF0000E326E3150D8A4D8
:101D7600BFEF0EF0C1EF0EF0C5EF0EF0010E326EA2
:101D8600E4EF0EF031C001F0000E036E000E026E9D
:101D9600000E056E060E046E04EC10F031C01CF049
:101DA600110E1D6E2FC01EF030C01FF087EC0FF015
:101DB6001DBEE2EF0EF0E0EF0EF0E4EF0EF0C1EF25
:101DC6000EF0325012001550D8B4ECEF0EF0EEEFD4
:101DD6000EF0F6EF0EF01850D8A4F4EF0EF0F6EF72
:101DE6000EF0FAEF0EF0010E196E12EF0FF015C09D
:101DF60011F016C012F017C013F0E8EC0CF0196ED3
:101E06001950D8A409EF0FF00BEF0FF012EF0FF0F7
:101E160015C011F018C012F058EC0EF0196E1950DA
:101E2600120019C01BF0000E366E000E356E28EF3C
:101E36000FF018C00BF01B0E0C6E1AC00DF00BEC59
:101E460008F00B5035260C5036221BC0F6FF100E3C
:101E5600F76EF86A0800F5500009D8A435EF0FF0C0
:101E660037EF0FF01CEF0FF035C018F036C019F041
:101E760012000950D8A442EF0FF044EF0FF048EFDC
:101E86000FF0010E0A6E62EF0FF00928016E010EC7
:101E9600026E02EC09F00A6E030EE82EFED7000071
:101EA6000A50D8A459EF0FF05BEF0FF062EF0FF076
:101EB6000928016E000E026E02EC09F00A6E0A5045
:101EC60012000850D8B46AEF0FF06CEF0FF07CEFF9
:101ED6000FF00850D96EDA6ADF30E832E832070BC5
:101EE600096E070E09647AEF0FF07CEF0FF080EFB2
:101EF6000FF0010E0A6E85EF0FF008C001F0F7EC47
:101F06000AF00A6E0A5012001E0E226E1CC023F042
:101F1600000E276E000E266E000E2E6E000E2D6E23
:101F2600230E186E1DC019F0220E1A6E14EC0FF057
:101F360018C020F019C021F01C502624D96EDA6A88
:101F4600DF6A20C01CF021C01DF01200800F810F37
:101F5600820F830F840F920F930F940F950F960F96
:101F6600890F8A0F8B0F8C0F8D0F323A030B131BC1
:101F7600232B333B828A929A626A727A020A121A77
:0D1F8600222A020A121A01520000C30001B3
:101F94000950D8A4D0EF0FF0D2EF0FF0D6EF0FF026
:101FA400010E0A6EE8EF0FF00928016E010E026EB1
:101FB40002EC09F00A6E030EE82EFED70000092891
:101FC400016E000E026E02EC09F00A120A501200B1
:101FD40008BEEFEF0FF0F1EF0FF0F7EF0FF007C0CF
:101FE40007F008C008F003EF10F007C009F008C0BC
:101FF4000AF0091E0A1E094A0A2A09C007F00AC083
:1020040008F0120001C006F00EEF10F00650D96E71
:10201400DA6A02C0DFFF062A0406D8A005060428EF
:1020240006E10528D8A419EF10F01BEF10F008EF13
:1020340010F01200900E126EB5EC09F0166E1650E8
:10204400D8A427EF10F029EF10F02EEF10F07E0E39
:10205400116E5BEC0AF0166E165012002D3B17122F
:0D2064001A020A2B231B130B031202120297
:0C2072001CEC10F0176E1750120012004A
:00000001FF
