:0400000037EF0BF0DB
:101000000000000E2E6E2750D8B409EF08F00BEF49
:1010100008F01BEF08F02750D96EDA6ADF30E832AB
:10102000E832070B296E070E296419EF08F01BEF51
:1010300008F01FEF08F0010E2E6EBCEF08F02750ED
:10104000D96EDA6A28B002D0DF9E01D0DF8EA7EF1A
:1010500008F02750D96EDA6ADF30E832E832070B41
:10106000296E010E2A6E292A38EF08F0D8902A3608
:10107000292E36EF08F02750D96EDA6ADF50070BB9
:10108000020DF350150FD96EDA6ADECF2BF0DDCFEB
:101090002CF02BC0D9FF2CC0DAFF2A50DF12BCEF96
:1010A00008F02750D96EDA6ADF30E832E832070BF1
:1010B000296E010E2A6E292A60EF08F0D8902A3690
:1010C000292E5EEF08F02A50FF0A2B6E2750D96EAA
:1010D000DA6ADF50070B020DF350150FD96EDA6A8A
:1010E000DECF2CF0DDCF2DF02CC0D9FF2DC0DAFFE4
:1010F0002B50DF16BCEF08F02750D96EDA6ADF30CC
:10110000E832E832070B296E010E2A6E292A8BEF8E
:1011100008F0D8902A36292E89EF08F02A50FF0AC5
:101120002B6E2750D96EDA6ADF50070B020DF35091
:10113000150FD96EDA6ADECF2CF0DDCF2DF02CC082
:10114000D9FF2DC0DAFF2B50DF161BEF08F0285017
:10115000296E2A6A2A50000AD8B4B1EF08F07CEF51
:1011600008F02950000AD8B451EF08F0010AD8B4A9
:1011700029EF08F07CEF08F02E501200000E2D6EC3
:101180002750D8B4C6EF08F0C8EF08F0D8EF08F041
:101190002750D96EDA6ADF30E832E832070B286E62
:1011A000070E2864D6EF08F0D8EF08F02FEF09F00B
:1011B000010E2D6E45EF09F02750D96EDA6ADF3047
:1011C000E832E832070B286E010E296E282AEBEF71
:1011D00008F0D8902936282EE9EF08F02750D96E6C
:1011E000DA6ADF50070B020DF3500B0FD96EDA6A83
:1011F000DECF2AF0DDCF2BF02AC0D9FF2BC0DAFFDB
:101200002950DF1245EF09F02750D96EDA6ADF3036
:10121000E832E832070B286E010E296E282A13EFF8
:1012200009F0D8902936282E11EF09F02950FF0A2D
:101230002A6E2750D96EDA6ADF50070B020DF35081
:101240000B0FD96EDA6ADECF2BF0DDCF2CF02BC07E
:10125000D9FF2CC0DAFF2A50DF1645EF09F02750DE
:10126000D96EDA6ADFBC37EF09F03AEF09F0010E08
:101270003BEF09F0000E000AD8B404EF09F0010AB0
:10128000D8B4DCEF08F0D8EF08F02D50120065EC70
:101290000BF0366E010E3B6E000E386E000E376E90
:1012A000000E396E3604D8A458EF09F05AEF09F051
:1012B00060EF09F0000E2A6E010E296E99EC0BF01A
:1012C0001F0E306E3B0E316E1CEC0AF03B50D8A462
:1012D0006CEF09F06EEF09F083EF09F0374A382A16
:1012E000F50E375C010E3858D8A079EF09F07BEF86
:1012F00009F07FEF09F0000E3A6E89EF09F0010E58
:101300003A6E89EF09F0000E386E000E376E010E4E
:101310003A6E3A50D8A48FEF09F091EF09F0A1EF9F
:1013200009F03950D8A497EF09F099EF09F0A1EF2F
:1013300009F0260E2F6E9BEC0AF0010E396E60EF5D
:1013400009F03A50D8A4A7EF09F0A9EF09F060EF2F
:1013500009F03904D8A4AFEF09F0B1EF09F060EF5C
:1013600009F0260E2F6ED0EC0AF0000E396E60EFF9
:1013700009F000EF00F02750D8B4C1EF09F0C3EF37
:1013800009F0DBEF09F02850D8B4C9EF09F0CBEF32
:1013900009F0DBEF09F02750D96EDA6ADF30E83266
:1013A000E832070B296E070E2964D9EF09F0DBEF4D
:1013B00009F0DDEF09F01BEF0AF02850D96EDA6A68
:1013C0002750E16EE26AE730E832E832070B296E17
:1013D0002750E16EE26AE750070B020DF350010F50
:1013E000E16EE26AE6CF2AF0E5CF2BF02AC0E1FFFA
:1013F0002BC0E2FFE7502C6E2750E16EE26AE73027
:10140000E832E832070B2D6E010E2E6E2D2A0BEFFF
:101410000AF0D8902E362D2E09EF0AF02E502C14FB
:101420002F6E292A16EF0AF0D8902F32292E14EFAA
:101430000AF02F50DF6E1200000E326E3050D8B41A
:1014400024EF0AF026EF0AF02EEF0AF03150D8A46C
:101450002CEF0AF02EEF0AF030EF0AF062EF0AF0FC
:1014600030C027F0320E286EBBEC09F03050D96E38
:10147000DA6A020ED926DF50D8A441EF0AF043EF12
:101480000AF058EF0AF03204D8A449EF0AF04BEF03
:101490000AF051EF0AF03150D96EDA6ADF6A62EF72
:1014A0000AF03150D96EDA6A010EDF6E62EF0AF08F
:1014B0003204D8A45EEF0AF060EF0AF04BEF0AF0B6
:1014C00051EF0AF01200000E336E3150D8A46BEFCA
:1014D0000AF06DEF0AF071EF0AF0010E336E99EF2A
:1014E0000AF046C034F03150D96EDA6ADF500F0B83
:1014F000326E34503218F80B3218346E3150D96EC7
:10150000DA6ADF38070B326E3246324632463450E2
:101510003218C70B3218346E349C3150D96EDA6AE7
:10152000DFAE02D0348E01D0349E340E2F6E05EC27
:101530000BF0335012002F50D8A4A1EF0AF0A3EF04
:101540000AF0A5EF0AF0CFEF0AF045C031F02F50B6
:10155000D96EDA6ADF500F0B306E31503018F80B4D
:101560003018316E2F50D96EDA6ADF38070B306EC3
:1015700030463046304631503018C70B3018316E87
:10158000319C2F50D96EDA6ADFAE02D0318E01D095
:10159000319E310E276E010E286E01EC08F012000C
:1015A0002F50D8A4D6EF0AF0D8EF0AF0DAEF0AF0FD
:1015B00004EF0BF044C031F02F50D96EDA6ADF50DF
:1015C0000F0B306E31503018F80B3018316E2F5031
:1015D000D96EDA6ADF38070B306E30463046304657
:1015E00031503018C70B3018316E319C2F50D96EE6
:1015F000DA6ADFAE02D0318E01D0319E310E276E15
:10160000000E286E01EC08F012002F50D8B40BEF3A
:101610000BF00DEF0BF01DEF0BF02F50D96EDA6AC7
:10162000DF30E832E832070B306E070E30641BEF14
:101630000BF01DEF0BF01FEF0BF036EF0BF02FC090
:1016400027F0BEEC08F00009D8A429EF0BF02BEF2F
:101650000BF036EF0BF02FC027F02F50D96EDA6A5F
:10166000000EDFBE010E286E01EC08F01200A40E81
:10167000F66E160EF76E000EF86E00EE01F010EE2C
:1016800026F00900F5CFEEFFE550E150FAE100EE5B
:101690003CF00C0EEE6AE806FDE1000EF86E00016B
:1016A00047EF09F0800F810F820F830F840F920F95
:1016B000930F940F950F960F890F8A0F8B0F8C0F36
:1016C0008D0F520100C3010112021F0E2E6E78EC25
:1016D0000BF0220E2E6E78EC0BF0260E316E63ECC2
:1016E0000AF0250E316E63EC0AF0356E35501200AB
:1016F0002E50D8A47EEF0BF080EF0BF084EF0BF0B0
:10170000010E2F6E89EF0BF02EC027F0BEEC08F013
:101710002F6E2F5012008EEF0BF042064250800ABF
:101720007F0FD8B096EF0BF098EF0BF08DEF0BF02A
:1017300012008BEC0BF029C027F02AC028F0A2EC95
:0A1740000BF01200A2EF0BF01200F4
:00000001FF
