:0400000053EF01F0C9
:060008004C8285EF0CF0B4
:100018004C80D8CF43F0E8CF44F0E0CF45F0FACF9A
:1000280046F0FBCF47F0D9CF48F0DACF49F0F3CF0D
:100038004AF0F4CF4BF0F0A624EF00F026EF00F0E2
:100048002FEF00F0F0A02BEF00F02DEF00F02FEFD6
:1000580000F004EC0DF0F2A634EF00F036EF00F0FB
:1000680051EF00F0F2A03BEF00F03DEF00F051EF50
:1000780000F081A842EF00F044EF00F051EF00F0EB
:100088001804D8A44AEF00F04CEF00F051EF00F04C
:10009800000E186E000E30EC0BF0F2A656EF00F0D2
:1000A80058EF00F073EF00F0F2A05DEF00F05FEFA3
:1000B80000F073EF00F081B864EF00F066EF00F035
:1000C80073EF00F01850D8A46CEF00F06EEF00F05A
:1000D80073EF00F0010E186E010E30EC0BF0F2A673
:1000E80078EF00F07AEF00F095EF00F0F2A07FEFE4
:1000F80000F081EF00F095EF00F081AA86EF00F0A4
:1001080088EF00F095EF00F01704D8A48EEF00F008
:1001180090EF00F095EF00F0000E176E000EF5EC72
:100128000AF0F2A69AEF00F09CEF00F0B7EF00F0AB
:10013800F2A0A1EF00F0A3EF00F0B7EF00F081BA52
:10014800A8EF00F0AAEF00F0B7EF00F01750D8A41E
:10015800B0EF00F0B2EF00F0B7EF00F0010E176E4D
:10016800010EF5EC0AF0F2A6BCEF00F0BEEF00F0CD
:10017800D9EF00F0F2A0C3EF00F0C5EF00F0D9EF1F
:1001880000F081ACCAEF00F0CCEF00F0D9EF00F03E
:100198001604D8A4D2EF00F0D4EF00F0D9EF00F0A5
:1001A800000E166E000EBAEC0AF0F2A6DEEF00F0B2
:1001B800E0EF00F0FBEF00F0F2A0E5EF00F0E7EF72
:1001C80000F0FBEF00F081BCECEF00F0EEEF00F088
:1001D800FBEF00F01650D8A4F4EF00F0F6EF00F0B3
:1001E800FBEF00F0010E166E010EBAEC0AF0F2A653
:1001F80000EF01F002EF01F01DEF01F0F2A007EFB0
:1002080001F009EF01F01DEF01F081AE0EEF01F0F2
:1002180010EF01F01DEF01F01504D8A416EF01F05E
:1002280018EF01F01DEF01F0000E156E000E7FECC7
:100238000AF0F2A622EF01F024EF01F03FEF01F0FF
:10024800F2A029EF01F02BEF01F03FEF01F081BEA2
:1002580030EF01F032EF01F03FEF01F01550D8A474
:1002680038EF01F03AEF01F03FEF01F0010E156EA3
:10027800010E7FEC0AF04BC0F4FF4AC0F3FF49C0FF
:10028800DAFF48C0D9FF47C0FBFF46C0FAFF45C0A8
:10029800E0FF44C0E8FF43C0D8FF4C9010000AEFCD
:0202A8000CF058
:101000000000000E3E6E3750D8B409EF08F00BEF29
:1010100008F01BEF08F03750D96EDA6ADF30E8329B
:10102000E832070B396E070E396419EF08F01BEF31
:1010300008F09DEF08F0010E3E6EB2EF08F0375059
:10104000D96EDA6ADF30E832E832070B396E010E0A
:101050003A6E392A2EEF08F0D8903A36392E2CEF16
:1010600008F03750D96EDA6ADF50070B020DF350E3
:101070000B0FD96EDA6ADECF3BF0DDCF3CF03BC020
:10108000D9FF3CC0DAFF3A50DF12B2EF08F0375018
:10109000D96EDA6ADF30E832E832070B396E010EBA
:1010A0003A6E392A56EF08F0D8903A36392E54EF76
:1010B00008F03A50FF0A3B6E3750D96EDA6ADF50BB
:1010C000070B020DF3500B0FD96EDA6ADECF3CF03E
:1010D000DDCF3DF03CC0D9FF3DC0DAFF3B50DF160D
:1010E000B2EF08F03750D96EDA6ADF30E832E83212
:1010F000070B396E010E3A6E392A81EF08F0D8904D
:101100003A36392E7FEF08F03A50FF0A3B6E3750DF
:10111000D96EDA6ADF50070B020DF3500B0FD96E50
:10112000DA6ADECF3CF0DDCF3DF03CC0D9FF3DC0F8
:10113000DAFF3B50DF161BEF08F03850396E3A6A81
:101140003A50000AD8B4A7EF08F072EF08F039500F
:10115000000AD8B447EF08F0010AD8B41FEF08F02E
:1011600072EF08F03E501200000E0001886F8251AD
:10117000D8B4BDEF08F0BFEF08F0CFEF08F0825110
:10118000D96EDA6ADF30E832E832070B836F070E78
:101190008365CDEF08F0CFEF08F028EF09F0010EDE
:1011A000886F3EEF09F08251D96EDA6ADF30E8329B
:1011B000E832070B836F010E846F832BE2EF08F098
:1011C000D8908437832FE0EF08F000018251D96E68
:1011D000DA6ADF50070B020DF350010FD96EDA6A9D
:1011E000DECF85F0DDCF86F085C0D9FF86C0DAFF7F
:1011F0008451DF123EEF09F08251D96EDA6ADF3096
:10120000E832E832070B836F010E846F832B0BEFFC
:1012100009F0D8908437832F09EF09F00001845139
:10122000FF0A856F8251D96EDA6ADF50070B020D13
:10123000F350010FD96EDA6ADECF86F0DDCF87F08A
:1012400086C0D9FF87C0DAFF8551DF163EEF09F06F
:101250008251D96EDA6ADFBC30EF09F033EF09F062
:10126000010E34EF09F0000E000AD8B4FCEF08F0CC
:10127000010AD8B4D3EF08F0CFEF08F0885112007C
:10128000000E0001836F8251D8A449EF09F04BEFA3
:1012900009F097EF09F0010E836FB2EF09F0825168
:1012A000D96EDA6ADECF29F0DDCF2AF08251D96E0D
:1012B000DA6A020ED926DECF2BF0DDCF2CF0B2EFAA
:1012C00009F08251D96EDA6ADECF25F0DDCF26F043
:1012D0008251D96EDA6A020ED926DECF27F0DDCF31
:1012E00028F0B2EF09F08251D96EDA6ADECF21F030
:1012F000DDCF22F08251D96EDA6A020ED926DECF16
:1013000023F0DDCF24F0B2EF09F08251D96EDA6A12
:10131000DECF1DF0DDCF1EF08251D96EDA6A020EEB
:10132000D926DECF1FF0DDCF20F0B2EF09F08251D9
:10133000D96EDA6A040ED926DF30E832E832070BBC
:10134000040AD8B44FEF09F0010AD8B461EF09F0EC
:10135000030AD8B473EF09F0010AD8B485EF09F095
:101360004BEF09F08351120000018C51D8A4BBEF60
:1013700009F0BDEF09F0E5EF09F0010E8D6F00EF08
:101380000AF08C51040F896F60EC0CF000018D6F36
:1013900000EF0AF08C51040F896F60EC0CF0000133
:1013A0008D6F00EF0AF08C51040F896F60EC0CF028
:1013B00000018D6F00EF0AF08C51040F896F60EC13
:1013C0000CF000018D6F00EF0AF08C51D96EDA6AD3
:1013D000040ED926DF30E832E832070B040AD8B40D
:1013E000C1EF09F0010AD8B4CAEF09F0030AD8B472
:1013F000D3EF09F0010AD8B4DCEF09F0BDEF09F032
:101400008D511200D4EC0CF00001906F9005D8A41F
:101410000CEF0AF00EEF0AF010EF0AF042EF0AF0BC
:101420007C0E8E6F37EC0CF000019013760E8E6FF1
:1014300037EC0CF000019013700E8E6F37EC0CF04F
:10144000000190136A0E8E6F37EC0CF000019013C0
:101450001C0E8C6F44EC0AF0000190131B0E8C6F75
:1014600044EC0AF0000190131A0E8C6F44EC0AF061
:1014700000019013190E8C6F44EC0AF000019013D8
:1014800040EF0AF053EF01F0000E00018E6F8C5117
:10149000D8A44DEF0AF04FEF0AF053EF0AF0010E17
:1014A0008E6F7CEF0AF036C08FF08C51D96EDA6AFD
:1014B000DF500F0B8D6F8F518D19F80B8D198F6FBA
:1014C0008C51D96EDA6ADF38070B8D6F8D478D47E7
:1014D0008D478F518D19C70B8D198F6F8F9D8C5133
:1014E000D96EDA6ADFAE02D08F8F02D000018F9FF3
:1014F0008F0E896F60EC0CF000018E511200426E6D
:10150000F2904250D8A487EF0AF089EF0AF0A3EFD7
:101510000AF01F502010D8B490EF0AF092EF0AF0B2
:10152000B9EF0AF020EE1FF002D8A1EF0AF0050093
:10153000FA6EDE50FD6EDE50FE6EF850FF6EFA5011
:101540001200B9EF0AF01D501E10D8B4AAEF0AF02D
:10155000ACEF0AF0B9EF0AF002D8B9EF0AF00500D3
:10156000FA6E1D50FD6E1E50FE6EF850FF6EFA5062
:1015700012001200426EF2904250D8A4C2EF0AF05C
:10158000C4EF0AF0DEEF0AF023502410D8B4CBEFFA
:101590000AF0CDEF0AF0F4EF0AF020EE23F002D8C3
:1015A000DCEF0AF00500FA6EDE50FD6EDE50FE6ED6
:1015B000F850FF6EFA501200F4EF0AF0215022109A
:1015C000D8B4E5EF0AF0E7EF0AF0F4EF0AF002D83A
:1015D000F4EF0AF00500FA6E2150FD6E2250FE6E07
:1015E000F850FF6EFA5012001200426EF290425014
:1015F000D8A4FDEF0AF0FFEF0AF017EF0BF025502B
:101600002610D8B406EF0BF008EF0BF02FEF0BF01D
:1016100002D815EF0BF00500FA6E2550FD6E26502E
:10162000FE6EF850FF6EFA5012002FEF0BF02750AD
:101630002810D8B41EEF0BF020EF0BF02FEF0BF0BB
:1016400020EE27F002D82FEF0BF00500FA6EDE50E7
:10165000FD6EDE50FE6EF850FF6EFA501200120062
:10166000426EF2904250D8A438EF0BF03AEF0BF0F4
:1016700052EF0BF029502A10D8B441EF0BF043EF92
:101680000BF06AEF0BF002D850EF0BF00500FA6E8A
:101690002950FD6E2A50FE6EF850FF6EFA5012006F
:1016A0006AEF0BF02B502C10D8B459EF0BF05BEF16
:1016B0000BF06AEF0BF020EE2BF002D86AEF0BF084
:1016C0000500FA6EDE50FD6EDE50FE6EF850FF6EC5
:1016D000FA5012001200000E0001846F8251D8A44B
:1016E00074EF0BF076EF0BF07AEF0BF0010E846FD6
:1016F0009EEF0BF08251D96EDA6A050ED926DF50C3
:10170000D8A485EF0BF087EF0BF08CEF0BF0F28E87
:10171000F28CF1909EEF0BF08251D96EDA6A050ED1
:10172000D926DE04D8A497EF0BF099EF0BF09DEFCC
:101730000BF0F28EF1809EEF0BF084818451120049
:101740003F50D8A4A6EF0BF0A8EF0BF0AAEF0BF0D8
:10175000D4EF0BF034C041F03F50D96EDA6ADF505D
:101760000F0B406E41504018F80B4018416E3F502F
:10177000D96EDA6ADF38070B406E40464046404675
:1017800041504018C70B4018416E419C3F50D96EE4
:10179000DA6ADFAE02D0418E01D0419E410E376E33
:1017A000000E386E01EC08F012003F50D8A4DBEFB9
:1017B0000BF0DDEF0BF0DFEF0BF009EF0CF035C0B5
:1017C00041F03F50D96EDA6ADF500F0B406E415046
:1017D0004018F80B4018416E3F50D96EDA6ADF3876
:1017E000070B406E40464046404641504018C70BEC
:1017F0004018416E419C3F50D96EDA6ADFAE02D08C
:10180000418E01D0419E410E376E010E386E01ECC3
:1018100008F012004E0EF66E190EF76E000EF86EFE
:1018200000EE60F010EE22F00900F5CFEEFFE5507B
:10183000E150FAE1700EF66E190EF76E000EF86EBA
:1018400000EE01F010EE1CF00900F5CFEEFFE550C0
:10185000E150FAE100EE1DF01A0EEE6AE806FDE135
:101860004C904C92000EF86E000102EF0AF0000E50
:1018700000018F6F8E51D8A440EF0CF042EF0CF0B6
:1018800045EF0CF08F815DEF0CF0F296F2908EC078
:1018900082F06BEC0BF000018F138EC08CF0B4EC77
:1018A00009F000018F138EC082F040EC09F00001B6
:1018B0008F138EC082F0C6EC0CF000018F51120025
:1018C00000018951D8B467EF0CF069EF0CF079EFA3
:1018D0000CF08951D96EDA6ADF30E832E832070B52
:1018E0008A6F070E8A6577EF0CF079EF0CF07DEFC9
:1018F0000CF0010E8B6F83EF0CF089C082F0B4EC1A
:1019000008F000018B6F8B511200F2A88AEF0CF0E7
:101910008CEF0CF095EF0CF0F2A291EF0CF093EF3E
:101920000CF095EF0CF008EC0DF0F0A89AEF0CF02D
:101930009CEF0CF0A5EF0CF0F0A2A1EF0CF0A3EFE0
:101940000CF0A5EF0CF006EC0DF04C921100800F9E
:10195000810F820F830F840FB419FA197900C81907
:10196000BE197100DC19D2196900F019E61961007D
:10197000920F930F940F950F960F890F8A0F8B0F6D
:101980008C0F8D0F010101013222120200018251E0
:10199000D8A4CDEF0CF0CFEF0CF0D1EF0CF0D3EFDB
:1019A0000CF0D08EF286120002EC0DF00001826F76
:1019B00082511200190E3F6EA0EC0BF01200190EAE
:1019C0003F6ED5EC0BF012001A0E3F6ED5EC0BF00B
:1019D00012001C0E3F6EA0EC0BF012001B0E3F6EAF
:1019E000A0EC0BF012001B0E3F6ED5EC0BF01200BA
:1019F0001C0E3F6ED5EC0BF012001A0E3F6EA0ECE1
:101A00000BF01200000E1200F0901200F092120083
:041A1000F29212003C
:020000040030CA
:0E000000FF071F1FFF8985FF0FC00FE00F4095
:00000001FF
