:040000005FEF01F0BD
:100008004F82FACF49F0FBCF4AF0D9CF4BF0DACF85
:100018004CF0F3CF4DF0F4CF4EF0F2A816EF00F00D
:1000280018EF00F021EF00F0F2A21DEF00F01FEF33
:1000380000F021EF00F0ACEC0CF0F0A626EF00F099
:1000480028EF00F031EF00F0F0A02DEF00F02FEFD7
:1000580000F031EF00F0AAEC0CF0F0A836EF00F059
:1000680038EF00F041EF00F0F0A23DEF00F03FEF75
:1000780000F041EF00F0A8EC0CF0F2A646EF00F01B
:1000880048EF00F063EF00F0F2A04DEF00F04FEF03
:1000980000F063EF00F081A854EF00F056EF00F095
:1000A80063EF00F01804D8A45CEF00F05EEF00F0F6
:1000B80063EF00F0000E186E000E30EC0BF0F2A6A5
:1000C80068EF00F06AEF00F085EF00F0F2A06FEF44
:1000D80000F071EF00F085EF00F081B876EF00F0E6
:1000E80078EF00F085EF00F01850D8A47EEF00F00C
:1000F80080EF00F085EF00F0010E186E010E30EC75
:100108000BF0F2A68AEF00F08CEF00F0A7EF00F0FA
:10011800F2A091EF00F093EF00F0A7EF00F081AAB2
:1001280098EF00F09AEF00F0A7EF00F01704D8A4BA
:10013800A0EF00F0A2EF00F0A7EF00F0000E176E9E
:10014800000EF5EC0AF0F2A6ACEF00F0AEEF00F00E
:10015800C9EF00F0F2A0B3EF00F0B5EF00F0C9EF7F
:1001680000F081BABAEF00F0BCEF00F0C9EF00F080
:100178001750D8A4C2EF00F0C4EF00F0C9EF00F0A8
:10018800010E176E010EF5EC0AF0F2A6CEEF00F0A4
:10019800D0EF00F0EBEF00F0F2A0D5EF00F0D7EFD2
:1001A80000F0EBEF00F081ACDCEF00F0DEEF00F0E8
:1001B800EBEF00F01604D8A4E4EF00F0E6EF00F04F
:1001C800EBEF00F0000E166E000EBAEC0AF0F2A685
:1001D800F0EF00F0F2EF00F00DEF01F0F2A0F7EF12
:1001E80000F0F9EF00F00DEF01F081BCFEEF00F038
:1001F80000EF01F00DEF01F01650D8A406EF01F062
:1002080008EF01F00DEF01F0010E166E010EBAECC9
:100218000AF0F2A612EF01F014EF01F02FEF01F04F
:10022800F2A019EF01F01BEF01F02FEF01F081AE02
:1002380020EF01F022EF01F02FEF01F01504D8A410
:1002480028EF01F02AEF01F02FEF01F0000E156EF4
:10025800000E7FEC0AF0F2A634EF01F036EF01F061
:1002680051EF01F0F2A03BEF01F03DEF01F051EF4B
:1002780001F081BE42EF01F044EF01F051EF01F0CF
:100288001550D8A44AEF01F04CEF01F051EF01F0FE
:10029800010E156E010E7FEC0AF04EC0F4FF4DC042
:1002A800F3FF4CC0DAFF4BC0D9FF4AC0FBFF49C07F
:0A02B800FAFF4F921100D5EF0BF092
:101000000000000E446E3D50D8B409EF08F00BEF1D
:1010100008F01BEF08F03D50D96EDA6ADF30E83295
:10102000E832070B3F6E070E3F6419EF08F01BEF25
:1010300008F09DEF08F0010E446EB2EF08F03D504D
:10104000D96EDA6ADF30E832E832070B3F6E010E04
:10105000406E3F2A2EEF08F0D89040363F2E2CEFFE
:1010600008F03D50D96EDA6ADF50070B020DF350DD
:101070000B0FD96EDA6ADECF41F0DDCF42F041C00E
:10108000D9FF42C0DAFF4050DF12B2EF08F03D5006
:10109000D96EDA6ADF30E832E832070B3F6E010EB4
:1010A000406E3F2A56EF08F0D89040363F2E54EF5E
:1010B00008F04050FF0A416E3D50D96EDA6ADF50A9
:1010C000070B020DF3500B0FD96EDA6ADECF42F038
:1010D000DDCF43F042C0D9FF43C0DAFF4150DF16F5
:1010E000B2EF08F03D50D96EDA6ADF30E832E8320C
:1010F000070B3F6E010E406E3F2A81EF08F0D8903B
:1011000040363F2E7FEF08F04050FF0A416E3D50C1
:10111000D96EDA6ADF50070B020DF3500B0FD96E50
:10112000DA6ADECF42F0DDCF43F042C0D9FF43C0E0
:10113000DAFF4150DF161BEF08F03E503F6E406A69
:101140004050000AD8B4A7EF08F072EF08F03F5003
:10115000000AD8B447EF08F0010AD8B41FEF08F02E
:1011600072EF08F044501200000E0001826F7C51B3
:10117000D8B4BDEF08F0BFEF08F0CFEF08F07C5116
:10118000D96EDA6ADF30E832E832070B7D6F070E7E
:101190007D65CDEF08F0CFEF08F028EF09F0010EE4
:1011A000826F3EEF09F07C51D96EDA6ADF30E832A7
:1011B000E832070B7D6F010E7E6F7D2BE2EF08F0AA
:1011C000D8907E377D2FE0EF08F000017C51D96E7A
:1011D000DA6ADF50070B020DF350010FD96EDA6A9D
:1011E000DECF7FF0DDCF80F07FC0D9FF80C0DAFF97
:1011F0007E51DF123EEF09F07C51D96EDA6ADF30A2
:10120000E832E832070B7D6F010E7E6F7D2B0BEF0E
:1012100009F0D8907E377D2F09EF09F000017E514B
:10122000FF0A7F6F7C51D96EDA6ADF50070B020D1F
:10123000F350010FD96EDA6ADECF80F0DDCF81F096
:1012400080C0D9FF81C0DAFF7F51DF163EEF09F081
:101250007C51D96EDA6ADFBC30EF09F033EF09F068
:10126000010E34EF09F0000E000AD8B4FCEF08F0CC
:10127000010AD8B4D3EF08F0CFEF08F08251120082
:10128000000E00017D6F7C51D8A449EF09F04BEFAF
:1012900009F097EF09F0010E7D6FB2EF09F07C5174
:1012A000D96EDA6ADECF2FF0DDCF30F07C51D96E07
:1012B000DA6A020ED926DECF31F0DDCF32F0B2EF9E
:1012C00009F07C51D96EDA6ADECF2BF0DDCF2CF03D
:1012D0007C51D96EDA6A020ED926DECF2DF0DDCF31
:1012E0002EF0B2EF09F07C51D96EDA6ADECF27F02A
:1012F000DDCF28F07C51D96EDA6A020ED926DECF16
:1013000029F0DDCF2AF0B2EF09F07C51D96EDA6A0C
:10131000DECF23F0DDCF24F07C51D96EDA6A020EE5
:10132000D926DECF25F0DDCF26F0B2EF09F07C51D3
:10133000D96EDA6A040ED926DF30E832E832070BBC
:10134000040AD8B44FEF09F0010AD8B461EF09F0EC
:10135000030AD8B473EF09F0010AD8B485EF09F095
:101360004BEF09F07D51120000018651D8A4BBEF6C
:1013700009F0BDEF09F0E5EF09F0010E876F00EF0E
:101380000AF08651040F836F02EC0CF00001876FA6
:1013900000EF0AF08651040F836F02EC0CF000019D
:1013A000876F00EF0AF08651040F836F02EC0CF098
:1013B0000001876F00EF0AF08651040F836F02EC83
:1013C0000CF00001876F00EF0AF08651D96EDA6ADF
:1013D000040ED926DF30E832E832070B040AD8B40D
:1013E000C1EF09F0010AD8B4CAEF09F0030AD8B472
:1013F000D3EF09F0010AD8B4DCEF09F0BDEF09F032
:101400008751120078EC0CF000018A6F8A05D8A48D
:101410000CEF0AF00EEF0AF010EF0AF042EF0AF0BC
:10142000190E886F27EC0CF000018A13760E886F76
:1014300027EC0CF000018A13700E886F27EC0CF07B
:1014400000018A136A0E886F27EC0CF000018A13E2
:10145000220E866F44EC0AF000018A13210E866F7B
:1014600044EC0AF000018A13200E866F44EC0AF067
:1014700000018A131F0E866F44EC0AF000018A13E4
:1014800040EF0AF05FEF01F0000E0001886F865117
:10149000D8A44DEF0AF04FEF0AF053EF0AF0010E17
:1014A000886F7CEF0AF03CC089F08651D96EDA6A09
:1014B000DF500F0B876F89518719F80B8719896FD8
:1014C0008651D96EDA6ADF38070B876F87478747FF
:1014D000874789518719C70B8719896F899D86515D
:1014E000D96EDA6ADFAE02D0898F02D00001899FFF
:1014F000890E836F02EC0CF0000188511200486ED7
:10150000F2904850D8A487EF0AF089EF0AF0A3EFD1
:101510000AF025502610D8B490EF0AF092EF0AF0A6
:10152000B9EF0AF020EE25F002D8A1EF0AF005008D
:10153000FA6EDE50FD6EDE50FE6EF850FF6EFA5011
:101540001200B9EF0AF023502410D8B4AAEF0AF021
:10155000ACEF0AF0B9EF0AF002D8B9EF0AF00500D3
:10156000FA6E2350FD6E2450FE6EF850FF6EFA5056
:1015700012001200486EF2904850D8A4C2EF0AF050
:10158000C4EF0AF0DEEF0AF029502A10D8B4CBEFEE
:101590000AF0CDEF0AF0F4EF0AF020EE29F002D8BD
:1015A000DCEF0AF00500FA6EDE50FD6EDE50FE6ED6
:1015B000F850FF6EFA501200F4EF0AF0275028108E
:1015C000D8B4E5EF0AF0E7EF0AF0F4EF0AF002D83A
:1015D000F4EF0AF00500FA6E2750FD6E2850FE6EFB
:1015E000F850FF6EFA5012001200486EF290485008
:1015F000D8A4FDEF0AF0FFEF0AF017EF0BF02B5025
:101600002C10D8B406EF0BF008EF0BF02FEF0BF017
:1016100002D815EF0BF00500FA6E2B50FD6E2C5022
:10162000FE6EF850FF6EFA5012002FEF0BF02D50A7
:101630002E10D8B41EEF0BF020EF0BF02FEF0BF0B5
:1016400020EE2DF002D82FEF0BF00500FA6EDE50E1
:10165000FD6EDE50FE6EF850FF6EFA501200120062
:10166000486EF2904850D8A438EF0BF03AEF0BF0E8
:1016700052EF0BF02F503010D8B441EF0BF043EF86
:101680000BF06AEF0BF002D850EF0BF00500FA6E8A
:101690002F50FD6E3050FE6EF850FF6EFA50120063
:1016A0006AEF0BF031503210D8B459EF0BF05BEF0A
:1016B0000BF06AEF0BF020EE31F002D86AEF0BF07E
:1016C0000500FA6EDE50FD6EDE50FE6EF850FF6EC5
:1016D000FA50120012004550D8A471EF0BF073EFCE
:1016E0000BF075EF0BF09FEF0BF03AC047F0455051
:1016F000D96EDA6ADF500F0B466E47504618F80B6A
:101700004618476E4550D96EDA6ADF38070B466EC9
:1017100046464646464647504618C70B4618476E4B
:10172000479C4550D96EDA6ADFAE02D0478E01D0B1
:10173000479E470E3D6E000E3E6E01EC08F0120013
:101740004550D8A4A6EF0BF0A8EF0BF0AAEF0BF0D2
:10175000D4EF0BF03BC047F04550D96EDA6ADF504A
:101760000F0B466E47504618F80B4618476E45500B
:10177000D96EDA6ADF38070B466E4646464646465D
:1017800047504618C70B4618476E479C4550D96EC0
:10179000DA6ADFAE02D0478E01D0479E470E3D6E1B
:1017A000010E3E6E01EC08F01200D40EF66E180E1B
:1017B000F76E000EF86E00EE60F010EE1CF00900FF
:1017C000F5CFEEFFE550E150FAE1940EF66E180EFB
:1017D000F76E000EF86E00EE01F010EE22F0090038
:1017E000F5CFEEFFE550E150FAE100EE23F01A0EDE
:1017F000EE6AE806FDE14F904F92000EF86E000190
:1018000002EF0AF000018351D8B409EF0CF00BEF9E
:101810000CF01BEF0CF08351D96EDA6ADF30E8323E
:10182000E832070B846F070E846519EF0CF01BEF8D
:101830000CF01FEF0CF0010E856F25EF0CF083C04C
:101840007CF0B4EC08F00001856F85511200000EA9
:101850000001896F8851D8A430EF0CF032EF0CF002
:1018600035EF0CF0898147EF0CF0F296F29088C0CA
:1018700086F0B4EC09F00001891388C07CF040ECDC
:1018800009F00001891388C07CF05BEC0CF00001CA
:1018900089511200920F930F940F950F960F890F95
:1018A0008A0F8B0F8C0F8D0F0101010138192E1932
:1018B00061013222120200017C51D8A462EF0CF0C7
:1018C00064EF0CF066EF0CF069EF0CF0F28CF28E26
:1018D000F2861200800F810F820F830F840FFC1895
:1018E0004219790110190619710124191A1969018F
:1018F000A6EC0CF000017C6F7C5112001F0E456EAF
:101900006BEC0BF012001F0E456EA0EC0BF01200FA
:10191000200E456EA0EC0BF01200220E456E6BEC13
:101920000BF01200210E456E6BEC0BF01200210E35
:10193000456EA0EC0BF01200220E456EA0EC0BF0F1
:101940001200200E456E6BEC0BF01200000E120020
:0C195000F0921200F0901200F2921200CF
:020000040030CA
:0E000000FF071F1FFF8985FF0FC00FE00F4095
:00000001FF
