:0400000089EF0AF08A
:10100000003738392F3435362A3132332D23303DED
:101010002B00000E406E3950D8B411EF08F013EFDA
:1010200008F023EF08F03950D96EDA6ADF30E83281
:10103000E832070B3B6E070E3B6421EF08F023EF0D
:1010400008F0A5EF08F0010E406EBAEF08F0395035
:10105000D96EDA6ADF30E832E832070B3B6E010EF8
:101060003C6E3B2A36EF08F0D8903C363B2E34EFEE
:1010700008F03950D96EDA6ADF50070B020DF350D1
:101080000B0FD96EDA6ADECF3DF0DDCF3EF03DC00A
:10109000D9FF3EC0DAFF3C50DF12BAEF08F03950FA
:1010A000D96EDA6ADF30E832E832070B3B6E010EA8
:1010B0003C6E3B2A5EEF08F0D8903C363B2E5CEF4E
:1010C00008F03C50FF0A3D6E3950D96EDA6ADF50A5
:1010D000070B020DF3500B0FD96EDA6ADECF3EF02C
:1010E000DDCF3FF03EC0D9FF3FC0DAFF3D50DF16F5
:1010F000BAEF08F03950D96EDA6ADF30E832E832F8
:10110000070B3B6E010E3C6E3B2A89EF08F0D8902E
:101110003C363B2E87EF08F03C50FF0A3D6E3950BD
:10112000D96EDA6ADF50070B020DF3500B0FD96E40
:10113000DA6ADECF3EF0DDCF3FF03EC0D9FF3FC0E0
:10114000DAFF3D50DF1623EF08F03A503B6E3C6A61
:101150003C50000AD8B4AFEF08F07AEF08F03B50EB
:10116000000AD8B44FEF08F0010AD8B427EF08F00E
:101170007AEF08F040501200000E4A6E000E486EE2
:10118000000E476E000E466E4350D8B4CAEF08F00A
:10119000CCEF08F0D4EF08F04450D8A4D2EF08F018
:1011A000D4EF08F0D8EF08F0010E4A6E47EF09F0CF
:1011B000000E476E4A04D8A4E0EF08F0E2EF08F012
:1011C000E4EF08F0F5EF08F043504724396E000EC5
:1011D0003A6E09EC08F04A6E472A030E4764F3EFB3
:1011E00008F0F5EF08F0DAEF08F04A04D8A4FBEFB6
:1011F00008F0FDEF08F0FFEF08F047EF09F043506B
:101200004824396E010E3A6E09EC08F04A6E000E61
:10121000496E4A04D8A40FEF09F011EF09F013EF5B
:1012200009F03EEF09F043504924040F396E460E91
:101230003A6ED2EC09F04A6E4604D8A422EF09F0C7
:1012400024EF09F035EF09F04850040DF350010F79
:101250004924456E45C0F6FF100EF76EF86A4450FB
:10126000D96EDA6A0800F5CFDFFF492A030E496418
:101270003CEF09F03EEF09F009EF09F0482A030EB0
:10128000486445EF09F047EF09F0D8EF08F04A50FD
:101290001200000E3F6E3950D8B451EF09F053EFF1
:1012A00009F063EF09F03950D96EDA6ADF30E832BD
:1012B000E832070B3A6E070E3A6461EF09F063EF0C
:1012C00009F0BAEF09F0010E3F6ED0EF09F0395086
:1012D000D96EDA6ADF30E832E832070B3A6E010E77
:1012E0003B6E3A2A76EF09F0D8903B363A2E74EFEF
:1012F00009F03950D96EDA6ADF50070B020DF3504E
:10130000010FD96EDA6ADECF3CF0DDCF3DF03CC094
:10131000D9FF3DC0DAFF3B50DF12D0EF09F0395062
:10132000D96EDA6ADF30E832E832070B3A6E010E26
:101330003B6E3A2A9EEF09F0D8903B363A2E9CEF4E
:1013400009F03B50FF0A3C6E3950D96EDA6ADF5023
:10135000070B020DF350010FD96EDA6ADECF3DF0B4
:10136000DDCF3EF03DC0D9FF3EC0DAFF3C50DF1676
:10137000D0EF09F03950D96EDA6ADFBCC2EF09F05C
:10138000C5EF09F0010EC6EF09F0000E000AD8B44F
:101390008FEF09F0010AD8B467EF09F063EF09F0A5
:1013A0003F501200000E426E3950D8B4DAEF09F007
:1013B000DCEF09F0F4EF09F03A50D8B4E2EF09F0AD
:1013C000E4EF09F0F4EF09F03950D96EDA6ADF3052
:1013D000E832E832070B3B6E070E3B64F2EF09F090
:1013E000F4EF09F0F8EF09F0010E426E36EF0AF063
:1013F0003A50D96EDA6A3950E16EE26AE730E83283
:10140000E832070B3B6E3950E16EE26AE750070B9A
:10141000020DF350600FE16EE26AE6CF3CF0E5CFDB
:101420003DF03CC0E1FF3DC0E2FFE7503E6E395069
:10143000E16EE26AE730E832E832070B3F6E010EF8
:10144000406E3F2A26EF0AF0D89040363F2E24EF18
:101450000AF040503E14416E3B2A31EF0AF0D8901A
:1014600041323B2E2FEF0AF04150DF6E4250120006
:10147000000E446E000E456E4350D8A442EF0AF0B1
:1014800044EF0AF048EF0AF0010E466E87EF0AF0CB
:1014900043504424406EB9EC0AF0466E4604D8A48A
:1014A00054EF0AF056EF0AF058EF0AF061EF0AF035
:1014B000442A030E44645FEF0AF061EF0AF048EF3C
:1014C0000AF04650D8A467EF0AF069EF0AF087EFF8
:1014D0000AF0030E45646FEF0AF071EF0AF073EF44
:1014E0000AF087EF0AF043504524040F396E49ECA7
:1014F00009F0466E4604D8A480EF0AF082EF0AF0A5
:1015000084EF0AF087EF0AF0452A69EF0AF04650A7
:1015100012002C0EF66E160EF76E000EF86E00EE30
:1015200060F010EE0AF00900F5CFEEFFE550E15053
:10153000FAE1B80EF66E150EF76E000EF86E00EEBC
:1015400001F010EE38F00900F5CFEEFFE550E15064
:10155000FAE100016F6B6E6B6D6B6C6B6B6B6A6BA2
:1015600000EE4CF0110EEE6AE806FDE10001F8EF26
:101570000AF04050D8B4BFEF0AF0C1EF0AF0D1EF43
:101580000AF04050D96EDA6ADF30E832E832070BF1
:10159000416E070E4164CFEF0AF0D1EF0AF0D5EFAC
:1015A0000AF0010E426EDAEF0AF040C039F049EC61
:1015B00009F0426E42501200920F930F940F950F54
:1015C000960F890F8A0F8B0F8C0F8D0F2D3B178273
:1015D0008A929A626A727A020A121A01520000C34F
:1015E0000001121A020A2B231B130B031202120210
:1015F0000FEC0BF04B6E4B04D8A401EF0BF003EF94
:101600000BF005EF0BF00DEF0BF0180E436E5C0EB8
:10161000446EBCEC08F005EF0BF000EF00F0180E84
:10162000436E38EC0AF0476E47501200800F810F6E
:06163000820F830F840FFE
:00000001FF
