:0400000043EF00F0DA
:060008004B8257EF0BF0E4
:100018004B80D8CF1BF0E8CF1CF0E0CF1DF0FACF13
:100028001EF0FBCF1FF0D9CF20F0DACF21F0F3CFAD
:1000380022F0F4CF23F0F0A624EF00F026EF00F032
:100048002FEF00F0F0A02BEF00F02DEF00F02FEFD6
:1000580000F0EFEC0CF023C0F4FF22C0F3FF21C046
:10006800DAFF20C0D9FF1FC0FBFF1EC0FAFF1DC06A
:10007800E0FF1CC0E8FF1BC0D8FF4B9010009DEFAD
:020088000CF07A
:101000000000000E0001796F7651D8A40AEF08F0B5
:101010000CEF08F070EF08F0010E796F8EEF08F01A
:101020007651D96EDA6A030ED926DE04D8A41BEFF6
:1010300008F01DEF08F020EF08F0F18C8EEF08F0BB
:101040007651D96EDA6A030ED926DF50D8A42BEF79
:1010500008F02DEF08F00CEF08F0F19C8EEF08F08F
:101060007651D96EDA6A030ED926DE04D8A43BEF96
:1010700008F03DEF08F040EF08F0F18A8EEF08F03D
:101080007651D96EDA6A030ED926DF50D8A44BEF19
:1010900008F04DEF08F00CEF08F0F19A8EEF08F031
:1010A0007651D96EDA6A030ED926DE04D8A45BEF36
:1010B00008F05DEF08F060EF08F0F18A8EEF08F0BD
:1010C0007651D96EDA6A030ED926DF50D8A46BEFB9
:1010D00008F06DEF08F00CEF08F0F19A8EEF08F0D1
:1010E0007651D96EDA6A040ED926DF50776F786BA5
:1010F0007851000AD8B47FEF08F00CEF08F0775170
:10110000000AD8B410EF08F0010AD8B430EF08F0A4
:10111000030AD8B450EF08F00CEF08F07951120030
:10112000000E00017C6F7651D8B499EF08F09BEF68
:1011300008F0ABEF08F07651D96EDA6ADF30E832AA
:10114000E832070B776F070E7765A9EF08F0ABEF72
:1011500008F004EF09F0010E7C6F1AEF09F07651E8
:10116000D96EDA6ADF30E832E832070B776F010EAA
:10117000786F772BBEEF08F0D8907837772FBCEFD9
:1011800008F000017651D96EDA6ADF50070B020DC4
:10119000F350240FD96EDA6ADECF79F0DDCF7AF022
:1011A00079C0D9FF7AC0DAFF7851DF121AEF09F05F
:1011B0007651D96EDA6ADF30E832E832070B776FA2
:1011C000010E786F772BE7EF08F0D8907837772FFC
:1011D000E5EF08F000017851FF0A796F7651D96E7A
:1011E000DA6ADF50070B020DF350240FD96EDA6A6A
:1011F000DECF7AF0DDCF7BF07AC0D9FF7BC0DAFF9B
:101200007951DF161AEF09F07651D96EDA6ADFBC30
:101210000CEF09F00FEF09F0010E10EF09F0000ECE
:10122000000AD8B4D8EF08F0010AD8B4AFEF08F03C
:10123000ABEF08F07C511200000E0001796F76517F
:10124000D8A425EF09F027EF09F02BEF09F0010EE4
:10125000796F96EF09F0D08E78EF09F0F28EF28870
:1012600096EF09F07651D96EDA6A050ED926DF506D
:10127000D8A43DEF09F03FEF09F044EF09F0F28EFA
:10128000F28CF08696EF09F07651D96EDA6A050E87
:10129000D926DE04D8A44FEF09F051EF09F027EF6B
:1012A00009F0F28EF08696EF09F07651D96EDA6A7F
:1012B000050ED926DF50D8A460EF09F062EF09F0DF
:1012C00067EF09F0F28EF28CF08896EF09F0765114
:1012D000D96EDA6A050ED926DE04D8A472EF09F0B9
:1012E00074EF09F027EF09F0F28EF08896EF09F01D
:1012F0007651D96EDA6A040ED926DF50776F786B93
:101300007851000AD8B487EF09F027EF09F0775138
:10131000000AD8B42EEF09F0010AD8B432EF09F070
:10132000030AD8B455EF09F027EF09F079511200FC
:10133000000E0001796F7651D8A4A1EF09F0A3EF58
:1013400009F0EBEF09F0010E796F09EF0AF0000EDA
:10135000796F09EF0AF07651D96EDA6A050ED9264F
:10136000DF50D8A4B6EF09F0B8EF09F0BBEF09F0F1
:10137000F09C09EF0AF07651D96EDA6A050ED9268B
:10138000DE04D8A4C6EF09F0C8EF09F0A3EF09F016
:10139000F08C09EF0AF07651D96EDA6A050ED9267B
:1013A000DF50D8A4D6EF09F0D8EF09F0DBEF09F051
:1013B000F09E09EF0AF07651D96EDA6A050ED92649
:1013C000DE04D8A4E6EF09F0E8EF09F0A3EF09F096
:1013D000F08E09EF0AF07651D96EDA6A040ED9263A
:1013E000DF50776F786B7851000AD8B4FAEF09F0C4
:1013F000A3EF09F07751000AD8B4A7EF09F0010A6A
:10140000D8B4ABEF09F0030AD8B4CBEF09F0A3EFDF
:1014100009F07951120000017951D8A412EF0AF0B5
:1014200014EF0AF03FEF0AF0010E7C6F5DEF0AF057
:101430007951D96EDA6ADECF76F0DDCF77F063ECE2
:101440000DF000017C6F5DEF0AF07951D96EDA6A18
:10145000DECF76F0DDCF77F04DEC0DF000017C6F44
:101460005DEF0AF07951D96EDA6ADECF76F0DDCF22
:1014700077F037EC0DF000017C6F5DEF0AF07951E9
:10148000D96EDA6A040ED926DF507A6F7B6B7B51F6
:10149000000AD8B44EEF0AF014EF0AF07A51000AAD
:1014A000D8B418EF0AF0010AD8B425EF0AF0030AFD
:1014B000D8B432EF0AF014EF0AF07C511200115048
:1014C000D8B465EF0AF067EF0AF077EF0AF0115031
:1014D000D96EDA6ADF30E832E832070B126E070E97
:1014E000126475EF0AF077EF0AF079EF0AF09FEFD8
:1014F0000AF01150D96EDA6ADF30E832E832070BB1
:10150000126E010E136E122A88EF0AF0D89013366D
:10151000122E86EF0AF01150D96EDA6ADF50070BEF
:10152000020DF3502E0FD96EDA6ADECF14F0DDCF44
:1015300015F014C0D9FF15C0DAFF1350DF1A1200DE
:101540000150D8B4A6EF0AF0A8EF0AF0B8EF0AF0FD
:101550000150D96EDA6ADF30E832E832070B026EEA
:10156000070E0264B6EF0AF0B8EF0AF0BAEF0AF01D
:10157000E0EF0AF00150D96EDA6ADF30E832E83283
:10158000070B026E010E036E022AC9EF0AF0D89013
:101590000336022EC7EF0AF00150D96EDA6ADF5027
:1015A000070B020DF3502E0FD96EDA6ADECF04F06E
:1015B000DDCF05F004C0D9FF05C0DAFF0350DF1A04
:1015C0001200000E0001826F8051D8A4EAEF0AF0E9
:1015D000ECEF0AF0F0EF0AF0010E826F19EF0BF05A
:1015E0004AC083F08051D96EDA6ADF500F0B816FE9
:1015F00083518119F80B8119836F8051D96EDA6A92
:10160000DF38070B816F81478147814783518119FB
:10161000C70B8119836F839D8051D96EDA6ADFAE63
:1016200002D0838F02D00001839F830E7D6FCAECAE
:101630000CF0000182511200000E0001836F8251F4
:10164000D8A425EF0BF027EF0BF02BEF0BF0010EDA
:10165000836F55EF0BF082C076F091EC0BF0000138
:10166000831382C076F0C9EC0BF00001831382C0B3
:1016700076F001EC08F00001831382C076F098EC5C
:1016800009F00001831382C080F079EC0DF00001B5
:10169000831382C079F00BEC0AF00001831382C03F
:1016A00076F01CEC09F00001831383511200FACF8D
:1016B0000BF0FBCF0CF0D9CF0DF0DACF0EF0F3CF5B
:1016C0000FF0F4CF10F0F2A868EF0BF06AEF0BF018
:1016D00073EF0BF0F2A26FEF0BF071EF0BF073EF03
:1016E0000BF01FEC0DF0F0A878EF0BF07AEF0BF099
:1016F00083EF0BF0F0A27FEF0BF081EF0BF083EFA5
:101700000BF007EC0DF010C0F4FF0FC0F3FF0EC09C
:10171000DAFF0DC0D9FF0CC0FBFF0BC0FAFF4B92E4
:101720001100000E0001796F7651D8A49AEF0BF0EA
:101730009CEF0BF0A9EF0BF0010E796FC7EF0BF0E8
:10174000F298C7EF0BF0F096C7EF0BF0F098C7EFE9
:101750000BF07651D96EDA6A040ED926DF50776F16
:10176000786B7851000AD8B4B8EF0BF09CEF0BF00F
:101770007751000AD8B4A0EF0BF0010AD8B4A3EF58
:101780000BF0030AD8B4A6EF0BF09CEF0BF07951E5
:101790001200000E0001796F7651D8A4D2EF0BF041
:1017A000D4EF0BF0E1EF0BF0010E796FFFEF0BF0D0
:1017B000F292FFEF0BF0F090FFEF0BF0F092FFEFE3
:1017C0000BF07651D96EDA6A040ED926DF50776FA6
:1017D000786B7851000AD8B4F0EF0BF0D4EF0BF02F
:1017E0007751000AD8B4D8EF0BF0010AD8B4DBEF78
:1017F0000BF0030AD8B4DEEF0BF0D4EF0BF0795105
:10180000120018EC0EF00001846F8405D8A40BEFD1
:101810000CF00DEF0CF00FEF0CF035EF0CF0380E74
:10182000826F1CEC0BF000018413700E826F1CECB5
:101830000BF0000184136A0E826F1CEC0BF00001A8
:101840008413400E806FE1EC0AF0000184133F0E18
:10185000806FE1EC0AF0000184133E0E806FE1EC32
:101860000AF00001841333EF0CF043EF00F0165040
:10187000D8A43DEF0CF03FEF0CF041EF0CF069EF16
:101880000CF047C018F01650D96EDA6ADF500F0B13
:10189000176E18501718F80B1718186E1650D96EC7
:1018A000DA6ADF38070B176E1746174617461850C7
:1018B0001718C70B1718186E189C1650D96EDA6ACD
:1018C000DFAE02D0188E01D0189E180E116E5FEC9C
:1018D0000AF012000650D8A470EF0CF072EF0CF072
:1018E00074EF0CF09CEF0CF047C008F00650D96E76
:1018F000DA6ADF500F0B076E08500718F80B07184D
:10190000086E0650D96EDA6ADF38070B076E074695
:101910000746074608500718C70B0718086E089CAB
:101920000650D96EDA6ADFAE02D0088E01D0089E6A
:10193000080E016EA0EC0AF01200190EF66E1C0ED5
:10194000F76E000EF86E00EE60F010EE16F0090073
:10195000F5CFEEFFE550E150FAE1FC0EF66E1B0EFE
:10196000F76E000EF86E00EE24F010EE1DF0090088
:10197000F5CFEEFFE550E150FAE100EE41F00A0E3E
:10198000EE6AE806FDE14B904B92000EF86E000106
:1019900001EF0CF000017D51D8B4D1EF0CF0D3EF82
:1019A0000CF0E3EF0CF07D51D96EDA6ADF30E832EB
:1019B000E832070B7E6F070E7E65E1EF0CF0E3EF78
:1019C0000CF0E7EF0CF0010E7F6FEDEF0CF07DC037
:1019D00076F090EC08F000017F6F7F511200F090DC
:1019E00043504410D8B4F7EF0CF0F9EF0CF006EFC9
:1019F0000DF002D806EF0DF00500FA6E4350FD6EB3
:101A00004450FE6EF850FF6EFA5012001200F09231
:101A100041504210D8B40FEF0DF011EF0DF01EEF52
:101A20000DF002D81EEF0DF00500FA6E4150FD6E6C
:101A30004250FE6EF850FF6EFA5012001200F29201
:101A400045504610D8B427EF0DF029EF0DF036EFD2
:101A50000DF002D836EF0DF00500FA6E4550FD6E20
:101A60004650FE6EF850FF6EFA5012001200000E43
:101A70000001786F76517711D8A441EF0DF043EF54
:101A80000DF047EF0DF0010E786F4BEF0DF076C0C3
:101A900041F077C042F078511200000E0001786FDB
:101AA00076517711D8A457EF0DF059EF0DF05DEF97
:101AB0000DF0010E786F61EF0DF076C043F077C046
:101AC00044F078511200000E0001786F76517711C2
:101AD000D8A46DEF0DF06FEF0DF073EF0DF0010E68
:101AE000786F77EF0DF076C045F077C046F078510B
:101AF000120000018051D8A480EF0DF082EF0DF0AC
:101B000086EF0DF0010E816F8DEF0DF08051020F09
:101B10007D6FCAEC0CF00001816F815112004BA265
:101B200094EF0DF0CEEF0DF03F0E166E37EC0CF08B
:101B3000030E1A6E8A0E196E560EE82EFED7192E57
:101B4000FCD71A2EFAD712004BA2A9EF0DF0DEEF48
:101B50000DF0400E166E37EC0CF0030E1A6E8A0E66
:101B6000196E560EE82EFED7192EFCD71A2EFAD76C
:101B700012004BA2BEEF0DF0EEEF0DF03E0E166E12
:101B800037EC0CF0030E1A6E8A0E196E560EE82E04
:101B9000FED7192EFCD71A2EFAD712003F0E066E6A
:101BA0006AEC0CF0030E0A6E8A0E096E560EE82ED1
:101BB000FED7092EFCD70A2EFAD71200400E066E69
:101BC0006AEC0CF0030E0A6E8A0E096E560EE82EB1
:101BD000FED7092EFCD70A2EFAD712003E0E066E4B
:101BE0006AEC0CF0030E0A6E8A0E096E560EE82E91
:101BF000FED7092EFCD70A2EFAD71200920F930FA8
:101C0000940F950F960F890F8A0F8B0F8C0F8D0FE6
:101C1000481B41010001221202800F810F820F83B5
:0F1C20000F840F721B510102011E1B49010100AD
:101C30001EEC0EF00001766F76511200000E1200BD
:020000040030CA
:0E000000FF071F1FFF8985FF0FC00FE00F4095
:00000001FF
