:0400000013EF00F00A
:06000800478218ED0AF02A
:100018004780E0CF2AF02AC0E0FF47901000C2EFE7
:0200280009F0DD
:101000000000000E3C6E000E3B6EC3EF08F0AC9883
:10101000AC94B896000E2B6E120E2C6E7A0E2D6EBE
:10102000000E2E6E3850D96EDA6A060ED926DECF43
:1010300039F0DDCF3AF039C02FF03AC030F0316AE4
:10104000326AF8EC08F0070E2BEF08F0D8902E3239
:101050002D322C322B32E82E26EF08F0FF0E2B24F7
:101060003B6EFF0E2C203C6EE5EF08F0AC98AC8494
:10107000B896000E2B6E120E2C6E7A0E2D6E000E90
:101080002E6E3850D96EDA6A060ED926DECF39F0C8
:10109000DDCF3AF039C02FF03AC030F0316A326A11
:1010A000F8EC08F0050E5AEF08F0D8902E322D32E9
:1010B0002C322B32E82E55EF08F0FF0E2B243B6E1E
:1010C000FF0E2C203C6EE5EF08F0AC98AC94B8868F
:1010D000000E2B6E120E2C6E7A0E2D6E000E2E6EE2
:1010E0003850D96EDA6A060ED926DECF39F0DDCF58
:1010F0003AF039C02FF03AC030F0316A326AF8EC79
:1011000008F0050E89EF08F0D8902E322D322C32DF
:101110002B32E82E84EF08F0FF0E2B243B6EFF0EDF
:101120002C203C6EE5EF08F0AC98AC84B886000E3D
:101130002B6E120E2C6E7A0E2D6E000E2E6E385007
:10114000D96EDA6A060ED926DECF39F0DDCF3AF055
:1011500039C02FF03AC030F0316A326AF8EC08F04A
:10116000030EB8EF08F0D8902E322D322C322B32ED
:10117000E82EB3EF08F0FF0E2B243B6EFF0E2C2061
:101180003C6EE5EF08F03850D96EDA6A0A0ED926BF
:10119000DF50396E3A6A3A50000AD8B4D2EF08F0FC
:1011A000E5EF08F03950000AD8B407EF08F0010A5B
:1011B000D8B436EF08F0030AD8B465EF08F0010A96
:1011C000D8B494EF08F0E5EF08F03850D96EDA6A39
:1011D0000A0ED926DF50396E39463946AC503918D7
:1011E000FB0B3918AC6E3BC0AFFF3C50B06E120029
:1011F000000E336E000E346E000E356E000E366E2D
:101200002F50301031103210D8B409EF09F00BEF25
:1012100009F041EF09F0010E376E15EF09F0D89093
:101220002F36303631363236372A32AE1AEF09F0E1
:101230001CEF09F00FEF09F0D8903336343635360D
:1012400036362F502B5C30502C5831502D583250A0
:101250002E58D8A02EEF09F030EF09F039EF09F041
:101260002F502B5E30502C5A31502D5A32502E5A5E
:101270003380D8903232313230322F32372E1CEF59
:1012800009F033C02BF034C02CF035C02DF036C03F
:101290002EF01200000E426E000E416E1F0E3D6ECB
:1012A000A0EC09F0000E2C6E310E2B6E78EC09F0DC
:1012B000060E406E130E3F6EAE0EE82EFED73F2E8A
:1012C000FCD7402EFAD7000E2C6E300E2B6E78EC29
:1012D00009F0060E406E130E3F6EAE0EE82EFED7DE
:1012E0003F2EFCD7402EFAD752EF09F013EF00F053
:1012F000ACA27DEF09F07FEF09F078EF09F02BC089
:10130000ADFFACAC86EF09F088EF09F09FEF09F074
:101310002BC02DF02CC02EF0090E2F6ED8902E323F
:101320002D322F2E8EEF09F02DA099EF09F09BEFB3
:1013300009F09EEF09F0AC809FEF09F0AC9012002D
:10134000000E3E6E3D50D8A4A8EF09F0AAEF09F0B8
:10135000AEEF09F0010E3E6EC0EF09F0AB9E3DC04E
:1013600038F001EC08F0948C948E3DC02BF0F2EC38
:1013700009F03E123DC02BF005EC0AF03E12AB8E98
:101380003E501200BA0EF66E130EF76E000EF86E97
:1013900000EE01F010EE29F00900F5CFEEFFE55068
:1013A000E150FAE1466A456A446A436A47904792C7
:1013B000000EF86E00014AEF09F0800F810F820FD6
:1013C000830F840F920F930F940F950F960F890F31
:1013D0008A0F8B0F8C0F8D0F0000000000008025FE
:0313E00003030202
:1013E400AC8A2B50D96EDA6A090ED926DFA2FDEF3A
:1013F40009F0FFEF09F002EF0AF0AC8C03EF0AF0FA
:10140400AC9C000E1200AB882B50D96EDA6A080E21
:10141400D926DFA210EF0AF012EF0AF015EF0AF056
:10142400AB8C16EF0AF0AB9C000E1200060047923C
:021434001100A5
:020000040030CA
:0E000000FF021F1EFF8185FF0FC00FE00F40A3
:00000001FF
