:0400000013EF00F00A
:060008004082DDED09F06D
:100018004080E0CF24F024C0E0FF40901000B0EF13
:0200280009F0DD
:101000000000000E366E000E356E5DEF08F0B886FB
:10101000000E256E120E266E7A0E276E000E286EBA
:101020003250D96EDA6ADECF33F0DDCF34F033C020
:1010300029F034C02AF02B6A2C6A7CEC08F0030EED
:1010400027EF08F0D8902832273226322532E82EB2
:1010500022EF08F0FF0E2524356EFF0E2620366E97
:1010600077EF08F0B896000E256E120E266E7A0EF7
:10107000276E000E286E3250D96EDA6ADECF33F05A
:10108000DDCF34F033C029F034C02AF02B6A2C6A4B
:101090007CEC08F0030E52EF08F0D890283227328B
:1010A00026322532E82E4DEF08F0FF0E2524356E4E
:1010B000FF0E2620366E77EF08F03250D96EDA6ACE
:1010C000040ED926DF50336E346A3450000AD8B487
:1010D0006CEF08F077EF08F03350000AD8B432EF25
:1010E00008F0010AD8B407EF08F077EF08F035C030
:1010F000AFFF3650B06E1200000E2D6E000E2E6E39
:10110000000E2F6E000E306E29502A102B102C105E
:10111000D8B48DEF08F08FEF08F0C5EF08F0010E9E
:10112000316E99EF08F0D89029362A362B362C36B6
:10113000312A2CAE9EEF08F0A0EF08F093EF08F0F4
:10114000D8902D362E362F3630362950255C2A5031
:1011500026582B5027582C502858D8A0B2EF08F00A
:10116000B4EF08F0BDEF08F02950255E2A50265A4A
:101170002B50275A2C50285A2D80D8902C322B32A5
:101180002A322932312EA0EF08F02DC025F02EC0D2
:1011900026F02FC027F030C028F012002550D96E5D
:1011A000DA6A030ED926DFA4D8EF08F0DAEF08F0E8
:1011B000E9EF08F02550D96EDA6A020ED926DFA4CD
:1011C000E4EF08F0E6EF08F0E9EF08F0AB8AEAEFA9
:1011D00008F0AB9A2550D96EDA6A020ED926DFA242
:1011E000F4EF08F0F6EF08F0F9EF08F0AB88FAEF4B
:1011F00008F0AB982550D96EDA6A020ED926DFA026
:1012000004EF09F006EF09F009EF09F0AB8C0AEFE3
:1012100009F0AB9C000E1200000E3B6E1F0E376EE5
:101220008DEC09F03B12000E266E310E256E65EC3A
:1012300009F0060E3A6E130E396EAE0EE82EFED78A
:10124000392EFCD73A2EFAD7000E266E300E256EB8
:1012500065EC09F0060E3A6E130E396EAE0EE82EEE
:10126000FED7392EFCD73A2EFAD713EF09F013EF39
:1012700000F02550D96EDA6A030ED926DFA043EFBD
:1012800009F045EF09F048EF09F0AC8A49EF09F0A1
:10129000AC9A2550D96EDA6A030ED926DFA402D0A3
:1012A000AC8E01D0AC9E2550D96EDA6A030ED926D9
:1012B000DFA25DEF09F05FEF09F062EF09F0AC8C9F
:1012C00063EF09F0AC9C000E1200ACA26AEF09F0CB
:1012D0006CEF09F065EF09F025C0ADFFACAC73EF22
:1012E00009F075EF09F08CEF09F025C027F026C052
:1012F00028F0090E296ED89028322732292E7BEF4C
:1013000009F027A086EF09F088EF09F08BEF09F0CC
:10131000AC808CEF09F0AC901200000E386E3750A4
:10132000D8A495EF09F097EF09F09BEF09F0010EB3
:10133000386EAEEF09F0AB9EAC8837C032F001ECEE
:1013400008F0948C948E37C025F039EC09F03812EF
:1013500037C025F0CEEC08F03812AB8E38501200B2
:10136000960EF66E130EF76E000EF86E00EE01F09C
:1013700010EE23F00900F5CFEEFFE550E150FAE161
:101380003F6A3E6A3D6A3C6A40904092000EF86EA9
:1013900000010CEF09F0800F810F820F830F840F83
:1013A000920F930F940F950F960F890F8A0F8B0F43
:0913B0008C0F8D0F80250107014F
:0613BA0006004092110044
:020000040030CA
:0E000000FF021F1EFF8185FF0FC00FE00F40A3
:00000001FF
